:040000000CEF00F011
:10000800FACF01F0FBCF02F0E9CF03F0B3ED0EF029
:10001800E3EF0FF0D9EC12F038EC12F0000E236E7B
:10002800000E226E87EC12F0820E606E000E616E7A
:1000380060C00FF061C010F0960E116EFF0E126EC8
:1000480007EC12F0020E376E60C038F061C039F06C
:10005800FF0E3B6E3A68000E3D6E000E3C6E010EC0
:100068003E6E020ED4EC09F060C00FF061C010F0D3
:10007800E50E116EFF0E126E07EC12F00A0E376EC7
:1000880060C038F061C039F0FF0E3B6E3A68000E70
:100098003D6E000E3C6E010E3E6E020ED4EC09F071
:1000A8000A0E376E4B0E386E000E396EFF0E3B6E21
:1000B8003A68000E3D6E000E3C6E010E3E6E230E39
:1000C800D4EC09F060C00FF061C010F0EB0E116EB7
:1000D800FF0E126E07EC12F00A0E376E60C038F091
:1000E80061C039F0FF0E3B6E3A68000E3D6E000E9F
:1000F8003C6E010E3E6E320ED4EC09F00A0E376EDD
:100108004D0E386E000E396EFF0E3B6E3A68000ECB
:100118003D6E000E3C6E010E3E6E460ED4EC09F0AC
:1001280060C00FF061C010F0EF0E116EFF0E126E7E
:1001380007EC12F00A0E376E60C038F061C039F073
:10014800FF0E3B6E3A68000E3D6E000E3C6E010ECF
:100158003E6E500ED4EC09F00A0E376E4F0E386E14
:10016800000E396EFF0E3B6E3A68000E3D6E000EB3
:100178003C6E010E3E6E640ED4EC09F060C00FF0C8
:1001880061C010F0FD0E116EFF0E126E07EC12F03A
:100198000A0E376E60C038F061C039F0FF0E3B6E52
:1001A8003A68000E3D6E000E3C6E010E3E6E780EF3
:1001B800D4EC09F060C00FF061C010F0CD0E116EE4
:1001C800FF0E126E07EC12F0140E376E60C038F096
:1001D80061C039F0070E3B6E3A68000E3D6E000EA6
:1001E8003C6E010E3E6E1E0ED4EC09F0000E226E1F
:1001F8001E0E216E000E246E1B0E236E000E266E40
:100208003C0E256E000E286E120E276E070E2A6E03
:100218002968B0EC0FF0000E3A6E280E396E000E09
:100228003C6E230E3B6E000E3E6E070E3D6EF80EC2
:10023800406E000E3F6E68EC10F0000E1B6E3C0E18
:100248001A6E000E1D6E230E1C6E000E1F6E070E1A
:100258001E6EFF0E216EE00E206E6BEC06F0000E97
:100268001B6E500E1A6E000E1D6E230E1C6E000EB5
:100278001F6E070E1E6E070E216EE00E206E6BECD1
:1002880006F01E0E376E450E386E000E396E070EDC
:100298003B6E3A68000E3D6E000E3C6E020E3E6EDE
:1002A800640ED4EC09F060C00FF061C010F0DE0EEF
:1002B800116EFF0E126E07EC12F0320E376E60C030
:1002C80038F061C039F0FF0E3B6E3A68000E3D6EA3
:1002D800000E3C6E010E3E6E1E0ED4EC09F0000EB0
:1002E800226E1E0E216E000E246E390E236E000E35
:1002F800266E3C0E256E000E286E120E276EFF0E1F
:100308002A6E2968B0EC0FF0000E3A6E280E396E8E
:10031800000E3C6E410E3B6E000E3E6E070E3D6EAB
:10032800F80E406E000E3F6E68EC10F0000E1B6E6B
:100338003C0E1A6E000E1D6E410E1C6E000E1F6ED6
:10034800070E1E6EFF0E216EE00E206E6BEC06F09F
:10035800000E1B6E500E1A6E000E1D6E410E1C6EA6
:10036800000E1F6E070E1E6E070E216EE00E206E29
:100378006BEC06F03C0E376E420E386E000E396E8E
:10038800FF0E3B6E3A68000E3D6E000E3C6E020E8C
:100398003E6E640ED4EC09F060C00FF061C010F03E
:1003A800C10E116EFF0E126E07EC12F0500E376E72
:1003B80060C038F061C039F0000E3B6E1F0E3A6E17
:1003C800000E3D6E000E3C6E010E3E6E1E0ED4EC0D
:1003D80009F0000E226E1E0E216E000E246E570EBE
:1003E800236E000E266E3C0E256E000E286E120E31
:1003F800276E000E2A6E1F0E296EB0EC0FF0000E4D
:100408001B6E280E1A6E000E1D6E5F0E1C6E000EFF
:100418001F6E070E1E6EF80E216E000E206E6BEC1E
:1004280006F0000E1B6E3C0E1A6E000E1D6E5F0E5F
:100438001C6E000E1F6E070E1E6EFF0E216EE00E64
:10044800206E6BEC06F0000E3A6E500E396E000E00
:100458003C6E5F0E3B6E000E3E6E070E3D6E070E45
:10046800406EE00E3F6E68EC10F05A0E376E480E84
:10047800386E000E396E000E3B6E1F0E3A6E000E7F
:100488003D6E000E3C6E020E3E6E640ED4EC09F01A
:1004980060C00FF061C010F0D70E116EFF0E126E23
:1004A80007EC12F06E0E376E60C038F061C039F09C
:1004B800F80E3B6E1F0E3A6E000E3D6E000E3C6E3F
:1004C800010E3E6E1E0ED4EC09F0000E226E1E0EBA
:1004D800216E000E246E750E236E000E266E3C0EE5
:1004E800256E000E286E120E276EF80E2A6E1F0E4D
:1004F800296EB0EC0FF0000E3A6E280E396E000E21
:100508003C6E7D0E3B6E000E3E6E070E3D6EF80E85
:10051800406E000E3F6E68EC10F0000E1B6E3C0E35
:100528001A6E000E1D6E7D0E1C6E000E1F6E070EDD
:100538001E6EFF0E216EE00E206E6BEC06F0000EB4
:100548001B6E500E1A6E000E1D6E7D0E1C6E000E78
:100558001F6E070E1E6E070E216EE00E206E6BECEE
:1005680006F0780E376EAF0E386E000E396EF80E44
:100578003B6E1F0E3A6E000E3D6E000E3C6E020E74
:100588003E6E640ED4EC09F01E0E376EB20E386E55
:10059800000E396E070E3B6E3A68000E3D6E000E77
:1005A8003C6E020E3E6E020ED4EC09F060C00FF0F5
:1005B80061C010F0F70E116EFF0E126E07EC12F00C
:1005C800140E376E60C038F061C039F0070E3B6E0C
:1005D8003A68000E3D6E000E3C6E010E3E6E030E34
:1005E800D4EC09F060C00FF061C010F0F30E116E8A
:1005F800FF0E126E07EC12F0500E376E60C038F026
:1006080061C039F0000E3B6E1F0E3A6E000E3D6E53
:10061800000E3C6E010E3E6E030ED4EC09F05A0E2D
:10062800376EB50E386E000E396E000E3B6E1F0E1B
:100638003A6E000E3D6E000E3C6E020E3E6E020ECD
:10064800D4EC09F060C00FF061C010F0AC0E116E70
:10065800FF0E126E07EC12F08C0E376E60C038F089
:1006680061C039F0FF0E3B6E3A68000E3D6E000E19
:100678003C6E010E3E6E010ED4EC09F0950E376EFD
:10068800530E386E000E396EFF0E3B6E3A68000E40
:100698003D6E000E3C6E010E3E6E060ED4EC09F067
:1006A800950E376E510E386E000E396EFF0E3B6E8A
:1006B8003A68000E3D6E000E3C6E010E3E6E200E36
:1006C800D4EC09F0950E376E590E386E000E396E5F
:1006D800FF0E3B6E3A68000E3D6E000E3C6E010E3A
:1006E8003E6E3A0ED4EC09F0950E376E570E386E02
:1006F800000E396EFF0E3B6E3A68000E3D6E000E1E
:100708003C6E010E3E6E570ED4EC09F0950E376E16
:10071800550E386E000E396EFF0E3B6E3A68000EAD
:100728003D6E000E3C6E010E3E6E700ED4EC09F06C
:1007380012000001A26F0001A2511E0DF350230FF9
:100748000001A36F0001A1510001D8A467D0000ED9
:100758003A6E280E396EA3C03BF03C6A000E3E6E1E
:10076800070E3D6E000E406E000E3F6E68EC10F0F6
:10077800000E3A6E3C0E396EA3C03BF03C6A000E88
:100788003E6E070E3D6E000E406E000E3F6E68EC2A
:1007980010F0000E3A6E500E396EA3C03BF03C6A62
:1007A800000E3E6E070E3D6E000E406E000E3F6E50
:1007B80068EC10F0000E1B6E280E1A6EA3C01CF019
:1007C8001D6A000E1F6E070E1E6EF80E216E000EBB
:1007D800206E6BEC06F0000E1B6E3C0E1A6EA3C06A
:1007E8001CF01D6A000E1F6E070E1E6EFF0E216E96
:1007F800E00E206E6BEC06F0000E1B6E500E1A6EAB
:10080800A3C01CF01D6A000E1F6E070E1E6E070E99
:10081800216EE00E206E6BEC06F000D00001A10501
:10082800D8A467D0000E3A6E280E396EA3C03BF0EC
:100838003C6A000E3E6E070E3D6EF80E406E000ECE
:100848003F6E68EC10F0000E3A6E3C0E396EA3C095
:100858003BF03C6A000E3E6E070E3D6E000E406E89
:10086800000E3F6E68EC10F0000E3A6E500E396EB6
:10087800A3C03BF03C6A000E3E6E070E3D6E000EB4
:10088800406E000E3F6E68EC10F0000E1B6E280ED6
:100898001A6EA3C01CF01D6A000E1F6E070E1E6E96
:1008A800F80E216E000E206E6BEC06F0000E1B6E2B
:1008B8003C0E1A6EA3C01CF01D6A000E1F6E070EB8
:1008C8001E6EFF0E216EE00E206E6BEC06F0000E21
:1008D8001B6E500E1A6EA3C01CF01D6A000E1F6E10
:1008E800070E1E6E070E216EE00E206E6BEC06F0F2
:1008F80000D0030E0001A119D8A467D0000E3A6EEB
:10090800280E396EA3C03BF03C6A000E3E6E070EFF
:100918003D6E000E406E000E3F6E68EC10F0000E4B
:100928003A6E3C0E396EA3C03BF03C6A000E3E6E38
:10093800070E3D6EFF0E406EE00E3F6E68EC10F045
:10094800000E3A6E500E396EA3C03BF03C6A000EA2
:100958003E6E070E3D6E000E406E000E3F6E68EC58
:1009680010F0000E1B6E280E1A6EA3C01CF01D6A34
:10097800000E1F6E070E1E6EF80E216E000E206E02
:100988006BEC06F0000E1B6E3C0E1A6EA3C01CF03A
:100998001D6A000E1F6E070E1E6EFF0E216EE00E02
:1009A800206E6BEC06F0000E1B6E500E1A6EA3C084
:1009B8001CF01D6A000E1F6E070E1E6E070E216EBC
:1009C800E00E206E6BEC06F000D0020E0001A119BB
:1009D800D8A467D0000E3A6E280E396EA3C03BF03B
:1009E8003C6A000E3E6E070E3D6E000E406E000E15
:1009F8003F6E68EC10F0000E3A6E3C0E396EA3C0E4
:100A08003BF03C6A000E3E6E070E3D6E000E406ED7
:100A1800000E3F6E68EC10F0000E3A6E500E396E04
:100A2800A3C03BF03C6A000E3E6E070E3D6E070EFB
:100A3800406EE00E3F6E68EC10F0000E1B6E280E44
:100A48001A6EA3C01CF01D6A000E1F6E070E1E6EE4
:100A5800F80E216E000E206E6BEC06F0000E1B6E79
:100A68003C0E1A6EA3C01CF01D6A000E1F6E070E06
:100A78001E6EFF0E216EE00E206E6BEC06F0000E6F
:100A88001B6E500E1A6EA3C01CF01D6A000E1F6E5E
:100A9800070E1E6E070E216EE00E206E6BEC06F040
:100AA80000D01200000E0001AA6F0001AA51040D27
:100AB800F328C26E74EC12F00FC0A8F010C0A9F0B1
:100AC800A8C00FF0A9C010F0000E126E050E116E2E
:100AD8004DEC12F00FC017F010C018F0CDEC11F06B
:100AE80017C01BF018C01CF019C01DF0000E1E6EB8
:100AF800800E1F6E440E206ED2EC0AF01BC05BF015
:100B08001CC05CF01DC05DF05BC00FF05CC010F055
:100B18005DC011F0000E126E200E136E400E146EA2
:100B280095EC0DF0D8B002D0010E01D0000E6A6E1F
:100B380063C069F0000E82B4010E686E66C06CF086
:100B4800000E82B2010E6B6E6A50D8A402D04E0E0F
:100B580001D0440E556E6950D8A402D0300E01D091
:100B6800310E536E6850D8A402D0300E01D0310E29
:100B7800516E6C50D8A402D0300E01D0310E596E8F
:100B88006B50D8A402D0300E01D0310E576E65508C
:100B9800D8A402D0300E01D0310E4D6E6450D8A4C6
:100BA80002D0300E01D0310E4F6E00D00A0E376ED3
:100BB8004B0E386E000E396EFF0E3B6E3A68000E13
:100BC8003D6E000E3C6E010E3E6E230ED4EC09F015
:100BD800950E376E530E386E000E396EFF0E3B6E53
:100BE8003A68000E3D6E000E3C6E010E3E6E060E1B
:100BF800D4EC09F0950E376E510E386E000E396E32
:100C0800FF0E3B6E3A68000E3D6E000E3C6E010E04
:100C18003E6E200ED4EC09F0950E376E590E386EE4
:100C2800000E396EFF0E3B6E3A68000E3D6E000EE8
:100C38003C6E010E3E6E3A0ED4EC09F0950E376EFE
:100C4800570E386E000E396EFF0E3B6E3A68000E76
:100C58003D6E000E3C6E010E3E6E570ED4EC09F050
:100C6800950E376E550E386E000E396EFF0E3B6EC0
:100C78003A68000E3D6E000E3C6E010E3E6E700E20
:100C8800D4EC09F00A0E376E4D0E386E000E396E30
:100C9800FF0E3B6E3A68000E3D6E000E3C6E010E74
:100CA8003E6E460ED4EC09F00A0E376E4F0E386EC3
:100CB800000E396EFF0E3B6E3A68000E3D6E000E58
:100CC8003C6E010E3E6E640ED4EC09F012001EC09C
:100CD80022F01FC023F0221E231E224A232A010EBF
:100CE8002224286E000E2320296E000E256E010E88
:100CF800246E1EC022F01FC023F0D890223623365F
:100D0800221E231E224A232A22C026F023C027F0AF
:100D1800000E2B6E000E2A6E1EC02CF01FC02DF088
:100D28001C501E24166E20C017F021C018F01A504F
:100D380020EC12F01E5000081C24166E20C017F07C
:100D480021C018F01A5020EC12F01CC016F020C078
:100D580017F021C018F01A501E2420EC12F01CC005
:100D680016F020C017F021C018F01E5000081A24F1
:100D780020EC12F078D029BE0BD02C06D8A02D0676
:100D8800020E2626000E2722265028262750292222
:100D98002A4A2B2A020E2426000E25222450282611
:100DA800255029221C502C24166E20C017F021C073
:100DB80018F01A502A2420EC12F01C502C24166E1D
:100DC80020C017F021C018F02A5000081A2420EC7F
:100DD80012F02C5000081C24166E20C017F021C0F9
:100DE80018F01A502A2420EC12F02C5000081C2469
:100DF800166E20C017F021C018F02A5000081A24D7
:100E080020EC12F01C502A24166E20C017F021C0C6
:100E180018F01A502C2420EC12F01C502A24166EBC
:100E280020C017F021C018F02C5000081A2420EC1C
:100E380012F02A5000081C24166E20C017F021C09A
:100E480018F01A502C2420EC12F02A5000081C2408
:100E5800166E20C017F021C018F02C5000081A2474
:100E680020EC12F000D02C502A5C2B50800A226E05
:100E78002D50800A2258D8A07ED712000001A96FF1
:100E8800B0D0A8C00FF0106A000E126E0A0E116ED4
:100E9800E0EC0DF00F50300F456EA8C00FF0106A4F
:100EA800000E126E0A0E116E37EC0FF00F50300F55
:100EB800466E1E0E376E450E386E000E396E070EE2
:100EC8003B6E3A68000E3D6E000E3C6E020E3E6EA2
:100ED800640ED4EC09F094D0A8C00FF0106A000E8C
:100EE800126E0A0E116EE0EC0DF00F50300F426ECC
:100EF800A8C00FF0106A000E126E0A0E116E37ECC1
:100F08000FF00F50300F436E3C0E376E420E386EA6
:100F1800000E396EFF0E3B6E3A68000E3D6E000EF5
:100F28003C6E020E3E6E640ED4EC09F069D0A8C087
:100F38000FF0106A000E126E0A0E116EE0EC0DF042
:100F48000F50300F486EA8C00FF0106A000E126ED6
:100F58000A0E116E37EC0FF00F50300F496E5A0E13
:100F6800376E480E386E000E396E000E3B6E1F0E3F
:100F78003A6E000E3D6E000E3C6E020E3E6E640E22
:100F8800D4EC09F03DD0A8C00FF0106A000E126E24
:100F98000A0E116EE0EC0DF00F50300F0001AF6F2C
:100FA800A8C00FF0106A000E126E0A0E116E37EC10
:100FB8000FF00F50300F0001B06F780E376EAF0E84
:100FC800386E000E396EF80E3B6E1F0E3A6E000E2C
:100FD8003D6E000E3C6E020E3E6E640ED4EC09F0BF
:100FE8000FD00001A951000AD8B44BD7010AD8B4D0
:100FF80073D7030AD8B49BD7010AD8B4C4D700D092
:101008001200346E800E3460A6D09F0E2C6401D07E
:10101800A2D03250D8A403D0010E326E00D01F0ED9
:101028002D6404D07E0E2D6403D000D03F0E2D6EAB
:10103800000E366E040E366401D08DD0530E2D602E
:1010480015D0E00E2D240F6E106AFF0E1022000E30
:10105800126E050E116E4DEC12F036500F26000E72
:101068001022BB0E0F24F66EFD0E14D0AD0E2D24EB
:101078000F6E106AFF0E1022000E126E050E116E12
:101088004DEC12F036500F26000E1022BA0E0F2427
:10109800F66EFE0E1020F76E0800F5CF33F000D084
:1010A800000E356E060E356401D053D033A023D020
:1010B8003204D8A40CD02C503524166E2EC017F04C
:1010C8002FC018F03450362420EC12F03ED03550A2
:1010D8003202F3502C24216E32C022F032C023F0A9
:1010E8002EC024F02FC025F036503202F35034249D
:1010F800B8EC10F02AD02E50301804E12F503118D7
:10110800D8B423D03204D8A40CD02C503524166E71
:1011180030C017F031C018F03450362420EC12F0EB
:1011280014D035503202F3502C24216E32C022F0F4
:1011380032C023F030C024F031C025F036503202DE
:10114800F3503424B8EC10F000D0352AD89033325C
:10115800A9D7362A6FD7120025C02DF026C02EF049
:101168002D1E2E1E2D4A2E2A010E2D24336E000E02
:101178002E20346E000E306E010E2F6E25C02DF01D
:1011880026C02EF0D8902D362E362D1E2E1E2D4A16
:101198002E2A2DC031F02EC032F0000E366E000E11
:1011A800356E25C037F026C038F067D034BE0BD076
:1011B8003706D8A03806020E3126000E32223150EA
:1011C800332632503422354A362A020E2F26000E94
:1011D80030222F5033263050342227A025D03750C4
:1011E80000082324166E3750372429242D6E2D2805
:1011F800176E2BC018F02CC019F0215035246FEC55
:101208000EF0355000082324166E35503524292455
:101218002D6E2D28176E2BC018F02CC019F02150F8
:1012280037246FEC0EF000D027A227D037500008E3
:101238002324166E3750372429242D6E2D28176E37
:101248002BC018F02CC019F03550000821246FEC81
:101258000EF0355000082324166E35503524292405
:101268002D6E2D28176E2BC018F02CC019F0375092
:10127800000821246FEC0EF000D03750355C365052
:10128800800A2D6E3850800A2D58D8A08FD71200AA
:10129800010E05EC13F0000E166E960E156E3FEC5F
:1012A80010F0110E05EC13F0010E166EF40E156E0B
:1012B8003FEC10F0B10E05EC13F0010EFDEC12F04E
:1012C8002C0EFDEC12F02D0EFDEC12F0B20E05EC1A
:1012D80013F0010EFDEC12F02C0EFDEC12F02D0EA9
:1012E800FDEC12F0B30E05EC13F0010EFDEC12F05C
:1012F8002C0EFDEC12F02D0EFDEC12F0010EFDECA3
:1013080012F02C0EFDEC12F02D0EFDEC12F0B40EC6
:1013180005EC13F0070EFDEC12F0C00E05EC13F00F
:10132800A20EFDEC12F0020EFDEC12F0840EFDECA4
:1013380012F0C10E05EC13F0C50EFDEC12F0C20E52
:1013480005EC13F00A0EFDEC12F0000EFDEC12F0A5
:10135800C30E05EC13F08A0EFDEC12F02A0EFDEC1C
:1013680012F0C40E05EC13F08A0EFDEC12F0EE0E2E
:10137800FDEC12F0C50E05EC13F00E0EFDEC12F0AC
:10138800200E05EC13F0360E05EC13F0C80EFDEC3C
:1013980012F03A0E05EC13F0050EFDEC12F01200F7
:1013A8000001A16FA1C0A7F037C0A6F038C00FF0A8
:1013B80039C010F0AEEC11F00FC0A2F010C0A3F0CD
:1013C800000E0001A56F000EA46F64D04150D8B480
:1013D80034D03E50050D0001A7513F6E406AF350CE
:1013E8003F26F450402240BE28D0405004E1810EF0
:1013F8003F5CD8A022D0000E0001A76F3E50070D19
:10140800F3500001A625030F0001A66FA00E0001EE
:10141800A66504D0A00E0001A66F00D00001A4515B
:101428003824D96E0001A5513920DA6E200EDE1855
:10143800D8B42CD002D02AD000D0A6C02CF00001FD
:10144800A4513824D96E0001A5513920DA6EDF5035
:101458002D6E3AC02EF03BC02FF03CC030F03DC09E
:1014680031F03EC032F00001A75105EC08F03E50C3
:10147800060DF3500001A7250001A76F800E00019B
:10148800A76504D0800E0001A76F00D00001A44B0F
:10149800A52B00D00001A2510001A45D0001A351B9
:1014A8000001A559D8A092D71200E00E05EC13F060
:1014B800020EFDEC12F01C0EFDEC12F0070EFDEC16
:1014C80012F0120EFDEC12F0370EFDEC12F0320E97
:1014D800FDEC12F0290EFDEC12F02D0EFDEC12F0D1
:1014E800290EFDEC12F0250EFDEC12F02B0EFDEC92
:1014F80012F0390EFDEC12F0000EFDEC12F0010EA8
:10150800FDEC12F0030EFDEC12F0100EFDEC12F0E3
:10151800E10E05EC13F0030EFDEC12F01D0EFDECD0
:1015280012F0070EFDEC12F0060EFDEC12F02E0E76
:10153800FDEC12F02C0EFDEC12F0290EFDEC12F071
:101548002D0EFDEC12F02E0EFDEC12F02E0EFDEC21
:1015580012F0370EFDEC12F03F0EFDEC12F0000E0B
:10156800FDEC12F0000EFDEC12F0020EFDEC12F094
:10157800100EFDEC12F0130E05EC13F0000E166EB3
:101588000A0E156E3FEC10F0290E05EC13F0000E54
:10159800166E640E156E3FEC10F012001DC021F09F
:1015A800226A236A1C34213601E322802150286EE6
:1015B8002850D8A402D00ED061D020C021F0226AD1
:1015C800236A1F34213601E322802150296E2950D5
:1015D800D8A407D0000E1B6E000E1C6E000E1D6EE8
:1015E8004DD0000E256E000E266E000E276E295077
:1015F800890F285E1DC029F02050291A800E29164F
:101608001C8EFF0E1B16FF0E1C16000E1D161F8EBD
:10161800FF0E1E16FF0E1F16000E2016180E246E43
:1016280000D0D8902536263627361E501B5C1F5012
:101638001C5820501D58D8A007D01E501B5E1F50A4
:101648001C5A20501D5A2580D8901B361C361D3632
:10165800242EE7D700D025C00FF026C010F027C0F1
:1016680011F028C012F029C013F084EC0CF00FC060
:101678001BF010C01CF011C01DF000D01200216E2C
:10168800800E216069D09F0E166401D065D0FF0ED0
:101698001B6EFF0E1C6E175021C01DF01E6A1D2602
:1016A800000E1E221B501D261C501E221EBE0AD0D4
:1016B8001E5004E1800E1D5CD8A004D02150000803
:1016C800800F176EFF0E1B6EFF0E1C6E185016C093
:1016D8001DF01E6A1D26000E1E221B501D261C50C2
:1016E8001E221EBE0BD01E5004E1A00E1D5CD8A009
:1016F80005D016500008A00F186E00D016C012F0C2
:10170800215017241B6E1B04136E165018241C6ED0
:101718001C04146E215091EC10F01A501F6E19C061
:1017280020F08380839218C016F01650D8B413D0D6
:1017380001D011D017C021F02150D8B40AD001D05F
:1017480008D01F50CFEC12F02050CFEC12F0210639
:10175800F3D71606EAD783821200000E5F6E010ED9
:101768005E6E8484440E4B6E010EDDEC10F0010EAB
:1017780049EC11F0010E25EC11F0020E01EC11F00C
:101788006604D8A409D0060E0001AA6F020E6DECFB
:1017980011F0000E666E00D0090EEBEC11F0030E8E
:1017A80001EC11F0030EEBEC11F0010E01EC11F05D
:1017B80082A410D0020E25EC11F0060EEBEC11F00D
:1017C800030E25EC11F0030EEBEC11F0010E25ECE5
:1017D80011F000D0020E49EC11F06304D8A409D02E
:1017E800090E0001AA6F000E6DEC11F0000E636E79
:1017F80000D0070EEBEC11F0030E49EC11F0030ECC
:10180800EBEC11F0010E49EC11F082A210D0020E9F
:10181800DDEC10F0060EEBEC11F0030EDDEC10F031
:10182800030EEBEC11F0010EDDEC10F000D012000D
:101838000001A96F5BD0A8C00FF0106A000E126EED
:101848000A0E116EE0EC0DF00F50300F0001B26F70
:10185800A8C00FF0106A000E126E0A0E116E37EC57
:101868000FF00F50300F0001B36F1E0E376EB20E1F
:10187800386E000E396E070E3B6E3A68000E3D6EEC
:10188800000E3C6E020E3E6E020ED4EC09F037D00C
:10189800A8C00FF0106A000E126E0A0E116EE0EC6E
:1018A8000DF00F50300F0001B56FA8C00FF0106A8F
:1018B800000E126E0A0E116E37EC0FF00F50300F3B
:1018C8000001B66F5A0E376EB50E386E000E396EBF
:1018D800000E3B6E1F0E3A6E000E3D6E000E3C6E03
:1018E800020E3E6E020ED4EC09F009D00001A95197
:1018F800000AD8B4A0D7020AD8B4CAD700D01200B8
:101908001250D8B405D00F5010101110D8A40ED012
:10191800000E0F6E000E106E000E116E53D006D022
:10192800122AD890113210320F3200D0000E0F1444
:10193800146E000E1014156EFE0E1114166E14504F
:1019480015101610D8B40ED0EBD70CD0122A010EF1
:101958000F26000E1022000E1122D89011321032DC
:101968000F3200D0000E0F14146E000E1014156EF6
:10197800FF0E1114166E145015101610D8B408D096
:10198800E5D706D01206D8900F361036113600D09B
:1019980010BE04D0020E1260F5D700D012B002D0EB
:1019A800109E00D0D8901232125011121350D8B491
:1019B80002D0118E00D00FC00FF010C010F011C06F
:1019C80011F000D0120061EC12F0F19E0EEC00F064
:1019D80074EC12F00FC0ADF010C0AEF0ADC00FF057
:1019E800AEC010F0000E126E050E116E4DEC12F026
:1019F8000FC017F010C018F0CDEC11F017C01BF095
:101A080018C01CF019C01DF0000E1E6E800E1F6E4F
:101A1800440E206ED2EC0AF01BC05BF01CC05CF0D8
:101A28001DC05DF05BC00FF05CC010F05DC011F030
:101A3800000E126E200E136E400E146E95EC0DF013
:101A4800D8B002D0010E01D0000E6A6E00D06A50E4
:101A5800D8B403D0B1EC0BF003D03EEC0DF000D0BD
:101A68006504D8A4F4D7000E656E14EC10F0EFD717
:101A78000CEF00F0000E5F6E000E5E6E84944E0E4A
:101A88004B6E000E636E000E666E010EDDEC10F0FC
:101A9800010E49EC11F0010E25EC11F0020E01ECDB
:101AA80011F0080EEBEC11F0030E01EC11F0030E2F
:101AB800EBEC11F0010E01EC11F082A410D0020E33
:101AC80025EC11F0060EEBEC11F0030E25EC11F0ED
:101AD800030EEBEC11F0010E25EC11F000D0020E14
:101AE80049EC11F0080EEBEC11F0030E49EC11F083
:101AF800030EEBEC11F0010E49EC11F082A210D0AC
:101B0800020EDDEC10F0060EEBEC11F0030EDDEC2E
:101B180010F0030EEBEC11F0010EDDEC10F000D02C
:101B2800120011AE17D00FC015F010C016F011C07A
:101B380017F0151E161E171E152A000E162217223C
:101B4800000E15240F6E000E1620106E800E172042
:101B5800116E00D014AE17D012C015F013C016F0D5
:101B680014C017F0151E161E171E152A000E162271
:101B78001722000E1524126E000E1620136E800E0A
:101B88001720146E00D0000E0F1A000E101A800EC7
:101B9800111A000E121A000E131A800E141A12507F
:101BA8000F5C1350105814501158D8B002D0D89068
:101BB80002D0D88000D01200000E146E12AE07D0EA
:101BC800116C121ED8B0122A010E146E00D010AE7D
:101BD80007D00F6C101ED8B0102A010E141A00D0AE
:101BE800000E166E000E156E11501210D8B421D0CA
:101BF800010E136E05D0D89011361236132A00D074
:101C080012BE02D0F8D700D0D8901536163611502B
:101C18000F5C12501058D8A006D011500F5E125009
:101C2800105A158000D0D89012321132132EECD7EA
:101C380000D01450D8B405D0156C161ED8B0162A8A
:101C480000D015C00FF016C010F000D01200206EA2
:101C5800800E20603FD09F0E166401D03BD0FF0E4F
:101C68001A6EFF0E1B6E175020C01CF01D6A1C2632
:101C7800000E1D221A501C261B501D221DBE0BD003
:101C88001D5004E1800E1C5CD8A005D0205000082F
:101C9800800F176E00D019501E6E18C01FF016C0A6
:101CA80012F0205017241A6E1A04136E16C014F07E
:101CB800205091EC10F08380839207D01E50CFEC17
:101CC80012F01F50CFEC12F000D017061728D8A436
:101CD800F5D783821200206E800E20603FD09F0EC1
:101CE800166401D03BD0FF0E1A6EFF0E1B6E175004
:101CF80016C01CF01D6A1C26000E1D221A501C2638
:101D08001B501D221DBE0BD01D5004E1A00E1C5CF3
:101D1800D8A005D016500008A00F176E00D0195093
:101D28001E6E18C01FF016C012F020C013F0165017
:101D380017241A6E1A04146E205091EC10F0838048
:101D4800839207D01E50CFEC12F01F50CFEC12F048
:101D580000D017061728D8A4F5D7838212000600EA
:101D6800EACF04F0E1CF05F0E2CF06F0D9CF07F0D3
:101D7800DACF08F0F3CF09F0F4CF0AF0F6CF0BF082
:101D8800F7CF0CF0F8CF0DF0F5CF0EF0F2A203D09C
:101D9800F4EC12F000D0F0A003D0EBEC12F000D07D
:101DA800F0A203D01DEC13F000D00EC0F5FF0DC05B
:101DB800F8FF0CC0F7FF0BC0F6FF0AC0F4FF09C01C
:101DC800F3FF08C0DAFF07C0D9FF06C0E2FF05C06D
:101DD800E1FF04C0EAFF03C0E9FF02C0FBFF01C046
:101DE800FAFF1100838E60C00FF061C010F0FD0E85
:101DF800116EFF0E126E07EC12F00A0E376E60C0FD
:101E080038F061C039F0FF0E3B6E3A68000E3D6E47
:101E1800000E3C6E010E3E6E780ED4EC09F0A2EC7A
:101E280012F0839E60C00FF061C010F0FB0E116EBF
:101E3800FF0E126E07EC12F00A0E376E60C038F013
:101E480061C039F0FF0E3B6E3A68000E3D6E000E21
:101E58003C6E010E3E6E780ED4EC09F0A2EC12F046
:101E680056EC05F01200000E146E10AE07D00F6C81
:101E7800101ED8B0102A010E146E00D012AE05D074
:101E8800116C121ED8B0122A00D011501210D8B4FA
:101E98001DD0010E136E05D0D89011361236132AB4
:101EA80000D012BE02D0F8D700D011500F5C1250EB
:101EB8001058D8A005D011500F5E1250105A00D0FB
:101EC800D89012321132132EF0D700D01450D8B453
:101ED80005D00F6C101ED8B0102A00D00FC00FF01C
:101EE80010C010F000D01200116E000EAC6E000E83
:101EF800AB6E11A002D0AC8800D011A203D0AC8C7C
:101F0800AB8C00D011A402D0AC8E00D011A602D0A8
:101F1800AB8802D0AB8A00D011B8AC849E9811AAC5
:101F280002D0AB8600D011AC02D09D8A01D09D9A18
:101F38009E9A11AE02D09D8801D09D980FC0AFFF28
:101F48001050B06EAC8AAB8E949C948EACB8ACBE7C
:101F580002D0948C00D0120023C016F025C017F0D0
:101F680029C018F02AC019F021502BEC0EF023508C
:101F780027242B6E2B04166E25C017F029C018F0E5
:101F88002AC019F021502BEC0EF023C016F027C000
:101F980017F029C018F02AC019F021506FEC0EF084
:101FA80023C016F027C017F029C018F02AC019F06E
:101FB800215025242B6E2B046FEC0EF0120000EE3E
:101FC80080F0210EEE6AE806FDE100EE5BF0170EE8
:101FD800EE6AE806FDE1280EF66E260EF76E000E94
:101FE800F86E00EEAFF010EE09F00900F5CFEEFF45
:101FF800E550E150FAE12A0EF66E250EF76E000E56
:10200800F86E00EE41F010EE1AF00900F5CFEEFF81
:10201800E550E150FAE1000EF86E0001E7EF0CF030
:10202800010E06D06504D8A405D0000E656E000E1A
:10203800646E1DD0010E49EC11F0010E01EC11F097
:10204800010EDDEC10F0010E25EC11F0F6EC0EF0AF
:10205800000E49EC11F0000E01EC11F0000EDDEC61
:1020680010F0000E25EC11F0F6EC0EF000D0640430
:10207800D8B4D8D7120015C00FF016C010F0000E53
:10208800126EFA0E116E4DEC12F00FC019F010C05E
:102098001AF019C017F01AC018F0171E181E174AA0
:1020A800182AFF0E1724196EFF0E18201A6EB80E84
:1020B800B16E19C0D6FF1A50D76EA192B18000D068
:1020C800A1A2FED7B19012003D5000083B24166E25
:1020D800D8803D34176E3FC018F040C019F0395011
:1020E8006FEC0EF039C021F03AC022F03BC023F06B
:1020F8003CC024F03DC025F03EC026F0000E286EFE
:10210800030E276E000E2A6E000E296E3FC02BF0BC
:1021180040C02CF0B0EC08F01200156E2A0E05EC49
:1021280013F0000EFDEC12F015506E24FDEC12F0C9
:10213800000EFDEC12F013506E24FDEC12F02B0E85
:1021480005EC13F0000EFDEC12F012507124FDECBA
:1021580012F0000EFDEC12F014507124FDEC12F098
:102168002C0E05EC13F01200296E29C02AF02B6AF8
:102178000ED021C016F023C017F024C018F025C0D7
:1021880019F02A506FEC0EF02A4A2B2A00D0225060
:1021980029C026F0276A2626000E272226502A5C08
:1021A8002B50800A286E2750800A2858D8A0E1D7DB
:1021B80012000001A46F030E706EA4C0A1F070504D
:1021C8009DEC03F00AD0839601D08386839814D0BF
:1021D800839601D0838683880FD00001A451000A1A
:1021E800D8B4F1D7010AD8B4F0D7030AD8B4F0D7D5
:1021F800010AD8B4EFD700D012000001A46F020E74
:10220800706EA4C0A1F070509DEC03F00AD08092CB
:1022180001D08082809414D0809201D08082808402
:102228000FD00001A451000AD8B4F1D7010AD8B4DC
:10223800F0D7030AD8B4F0D7010AD8B4EFD700D042
:1022480012000001A46F010E706EA4C0A1F07050BE
:102258009DEC03F00AD0849001D08480849214D03D
:10226800849001D0848084820FD00001A451000A98
:10227800D8B4F1D7010AD8B4F0D7030AD8B4F0D744
:10228800010AD8B4EFD700D012000001A46F000EE5
:10229800706EA4C0A1F070509DEC03F00AD0839A30
:1022A80001D0838A839C14D0839A01D0838A838C3B
:1022B8000FD00001A451000AD8B4F1D7010AD8B44C
:1022C800F0D7030AD8B4F0D7010AD8B4EFD700D0B2
:1022D80012000001AB6F0001AA050001AC6F0001FC
:1022E800AC510001D8B40DD001D00BD0ACC0A8F0CF
:1022F8000001AB511CEC0CF0BAEC12F00001AC0779
:10230800EED7000E0001A86F0001AB511CEC0CF0D9
:10231800BAEC12F012002A0E05EC13F0000EFDECD8
:1023280012F0000EFDEC12F0000EFDEC12F07F0E24
:10233800FDEC12F02B0E05EC13F0000EFDEC12F084
:10234800000EFDEC12F0000EFDEC12F09F0EFDECFD
:1023580012F012000FC013F010C014F003D0134A8B
:10236800142A00D013C0D9FF14C0DAFFDF50D8A454
:10237800F6D70FC011F010C012F0111E121E114A2C
:10238800122A135011240F6E14501220106E00D010
:102398001200000E1A6E18AE07D0176C181ED8B0AF
:1023A800182A010E1A6E00D017C00FF018C010F0CE
:1023B800116A8E0E126E1AC013F084EC0CF00FC066
:1023C80017F010C018F011C019F000D01200000169
:1023D800AB6FABC0ACF00001AC510001D8B40CD06D
:1023E80001D00AD0ACC0A8F0705042EC07F0F6EC6F
:1023F8000EF00001AC07EFD7000E0001A86F705077
:1024080042EC07F012000FC013F010C014F005D012
:10241800134A142A114A122A00D011C0F6FF12C01A
:10242800F7FF13C0D9FF14C0DAFF0800F5CFDFFFAC
:10243800DF50D8A4EDD71200196E800E196013D0A2
:102448009F0E166401D00FD016C012F01928136E13
:102458001628146E195091EC10F01850FDEC12F07B
:102468001750FDEC12F0120083828390800EC76E25
:10247800300EC66E4CEC09F08FEC11F059EC0AF0F6
:10248800360E05EC13F0C00EFDEC12F0010E6D6E69
:1024980012000F501102F3CF13F0F4CF14F00F50C5
:1024A8001202F350142610501102F350142613C0D0
:1024B8000FF014C010F000D01200C5EC12F00DECB3
:1024C80013F0AFEC12F0700ED36EF292F090F0921F
:1024D800F288F086F088F19CF19AF198F28E120059
:1024E800C28200D0C2B2FED7C450126E116AC35065
:1024F8001124136E000E1220146E13C00FF014C0B6
:1025080010F000D01200000E166E800E176EA00E8E
:10251800186E22C019F023C01AF0000E43EC0BF01D
:1025280012000130300030300030300044003000FC
:10253800300030003000440030003000030ED56E0B
:10254800DB0ED66E0B0ED76EF294D58E00D0F2A4A9
:10255800FED7D59E1200210E926E070E936E070EBF
:10256800946E000E956E000E966E1200838EE2EC4D
:1025780012F0A2EC12F0839E19EC13F0A2EC12F008
:102588001200000E106E190E0F6E3C0E78EC0FF054
:10259800600ED36E1200106E9E96C9CF0FF010C059
:1025A800C9FF00D0C7A0FED712008394000E166E94
:1025B800640E156E3FEC10F083841200F90ECB6E9A
:1025C800050ECA6E4A0EBB6E3C0EBA6E1200F09033
:1025D8005E045F10D8A403D0010E636E00D0120011
:1025E800F2925E045F10D8A403D0010E666E00D08C
:1025F8001200116E839283801150CFEC12F0838207
:102608001200116E839283901150CFEC12F08382E6
:102618001200010EC26E0E0EC16EA90EC06E12001F
:1026280030300030300030300000000EBA6E819635
:0A2638001200F092010E656E120010
:10FDBA0000000000000000005F00000007000700CC
:10FDCA00147F147F14242A7F2A12231308646236AC
:10FDDA00495620500008070300001C224100004138
:10FDEA00221C002A1C7F1C2A08083E080800807072
:10FDFA0030000808080808000060600020100804A5
:10FE0A00023E5149453E00427F40007249494946F7
:10FE1A002141494D331814127F1027454545393C75
:10FE2A004A49493141211109073649494936464962
:10FE3A0049291E0000140000004034000000081484
:10FE4A0022411414141414004122140802015909FD
:10FE5A00063E415D594E7C1211127C7F4949493652
:10FE6A003E414141227F4141413E7F494949417FCB
:10FE7A00090909013E414151737F0808087F004181
:10FE8A007F41002040413F017F081422417F4040CA
:10FE9A0040407F021C027F7F0408107F3E4141419F
:10FEAA003E7F090909063E4151215E7F091929460B
:10FEBA00264949493203017F01033F4040403F1F21
:10FECA002040201F3F4038403F6314081463030456
:10FEDA007804036159494D43007F414141020408B6
:10FEEA001020004141417F04020102044040404089
:10FEFA0040000307080020545478407F28444438BF
:10FF0A003844444428384444287F38545454180008
:10FF1A00087E090218A4A49C787F08040478004487
:10FF2A007D40002040403D007F1028440000417F72
:10FF3A0040007C047804787C0804047838444444FB
:10FF4A0038FC1824241818242418FC7C08040408F3
:10FF5A00485454542404043F44243C4040207C1C0C
:10FF6A002040201C3C4030403C44281028444C90FF
:10FF7A0090907C4464544C44000836410000007759
:10FF8A0000000041360800020102040245434533DD
:10FF9A003330314C20537072696E672032312D53E1
:10FFAA0031004557502045574C54204E5350204E4F
:10FFBA00534C54204D44004E4F5254482F534F55E2
:10FFCA00544800454153542F57455354004E2F531C
:10FFDA00204C5400452F57204C54004D6F64653A0D
:10FFEA000046523A0046533A00504E530050455785
:06FFFA000020002A0000B7
:020000040020DA
:08000000FFFFFFFFFFFFFFFF00
:020000040030CA
:0E000000FF08191EFF8281FF0FC00FE00F40A6
:00000001FF
