:040000001DEF6EF092
:10D94400000EBA6E819612000E0EC16EA90EC06E44
:10D954001200036E839283900350CDEC6CF08382AB
:10D964001200036E839283800350CDEC6CF08382AB
:10D974001200F90ECB6E050ECA6E4A0EBB6E3C0E3B
:10D98400BA6E12008394000E086E640E076E3BECB0
:10D994006FF083841200026E9E96C9CF01F002C01C
:10D9A400C9FF00D0C7A0FED71200000E026E190EE8
:10D9B400016E3C0E97EC6FF0600ED36E1200838EF6
:10D9C400BBEC6CF0F7EC6CF0839EA2EC6CF0F7EC23
:10D9D4006CF01200210E926E070E936E070E946E79
:10D9E400000E956E000E966E1200030ED56EDB0EC1
:10D9F400D66E0B0ED76EF294D58E00D0F2A4FED75D
:10DA0400D59E1200000E086E800E096EA00E0A6EDE
:10DA140014C00BF015C00CF0000EECEC72F0120008
:10DA25000130300030300030300030300030300010
:10DA35003030004400300030003000300044003009
:10DA4500003000C28200D0C2B2FED7C450046E03BB
:10DA55006AC3500324056E000E0420066E05C0013E
:10DA6500F006C002F000D0120001500302F3CF050A
:10DA7500F0F4CF06F001500402F3500626025003DD
:10DA850002F350062605C001F006C002F000D012D0
:10DA95000083828390800EC76E300EC66EB3EC7421
:10DAA500F0FEEC6DF03AEC74F0360EABEC6CF0C0B9
:10DAB5000EB3EC6CF0010E746E12003D6E3DC03E6F
:10DAC500F03E50D8B40BD001D009D010EC70F03E28
:10DAD500C03AF0775022EC77F03E06F2D7000E3AC6
:10DAE5006E775022EC77F012000B6E800E0B6013F0
:10DAF500D09F0E086401D00FD008C004F00B280594
:10DB05006E0828066E0B50EBEC6EF00A50B3EC6C09
:10DB1500F00950B3EC6CF012003D6E3C043E6E3ED5
:10DB250050D8B40BD001D009D03EC03AF03D50C416
:10DB3500EC71F0E1EC6CF03E06F2D7000E3A6E3D6A
:10DB450050C4EC71F0E1EC6CF0120001C005F0027C
:10DB5500C006F005D0054A062A034A042A00D00368
:10DB6500C0F6FF04C0F7FF05C0D9FF06C0DAFF08FD
:10DB750000F5CFDFFFDF50D8A4EDD71200000E0C63
:10DB85006E0AAE07D0096C0A1ED8B00A2A010E0C1F
:10DB95006E00D009C001F00AC002F0036A8E0E04BF
:10DBA5006E0CC005F026EC72F001C009F002C00A47
:10DBB500F003C00BF000D0120001C005F002C00652
:10DBC500F003D0054A062A00D005C0D9FF06C0DA01
:10DBD500FFDF50D8A4F6D701C003F002C004F0035C
:10DBE5001E041E034A042A05500324016E06500430
:10DBF50020026E00D012002A0EABEC6CF0000EB3C2
:10DC0500EC6CF0000EB3EC6CF0000EB3EC6CF07F36
:10DC15000EB3EC6CF02B0EABEC6CF0000EB3EC6CB1
:10DC2500F0000EB3EC6CF0000EB3EC6CF09F0EB38D
:10DC3500EC6CF0120000EE80F01F0EEE6AE806FDB7
:10DC4500E100EE64F0150EEE6AE806FDE1250EF63C
:10DC55006EDA0EF76E000EF86E00EE41F010EE2350
:10DC6500F00900F5CFEEFFE550E150FAE1000EF8BE
:10DC75006E00016FEF71F0366E000E776E36C033B1
:10DC8500F077509DEC79F00AD0839A01D0838A838E
:10DC95009C13D0839A01D0838A838C0ED036500092
:10DCA5000AD8B4F2D7010AD8B4F1D7030AD8B4F127
:10DCB500D7010AD8B4F0D700D01200366E010E771E
:10DCC5006E36C033F077509DEC79F00AD084900120
:10DCD500D08480849213D0849001D0848084820E75
:10DCE500D03650000AD8B4F2D7010AD8B4F1D70318
:10DCF5000AD8B4F1D7010AD8B4F0D700D01200364B
:10DD05006E020E776E36C033F077509DEC79F00ACF
:10DD1500D0809201D08082809413D0809201D080EF
:10DD25008280840ED03650000AD8B4F2D7010AD8C2
:10DD3500B4F1D7030AD8B4F1D7010AD8B4F0D700A3
:10DD4500D01200366E030E776E36C033F077509DD5
:10DD5500EC79F00AD0839601D08386839813D0831B
:10DD65009601D0838683880ED03650000AD8B4F247
:10DD7500D7010AD8B4F1D7030AD8B4F1D7010AD824
:10DD8500B4F0D700D012001B6E1BC01CF01D6A0E2C
:10DD9500D013C008F015C009F016C00AF017C00B63
:10DDA500F01C5051EC70F01C4A1D2A00D014501B79
:10DDB500C018F0196A1826000E192218501C5C1D8F
:10DDC50050800A1A6E1950800A1A58D8A0E1D71245
:10DDD50000076E2A0EABEC6CF0000EB3EC6CF0078E
:10DDE500507524B3EC6CF0000EB3EC6CF005507577
:10DDF50024B3EC6CF02B0EABEC6CF0000EB3EC6CBA
:10DE0500F004507824B3EC6CF0000EB3EC6CF00623
:10DE1500507824B3EC6CF02C0EABEC6CF012002FA8
:10DE25005000082D24086ED8802F34096E31C00AA1
:10DE3500F032C00BF02B5051EC70F02BC013F02CCE
:10DE4500C014F02DC015F02EC016F02FC017F030FD
:10DE5500C018F0000E1A6E030E196E000E1C6E002F
:10DE65000E1B6E31C01DF032C01EF03BEC75F0127A
:10DE75000007C001F008C002F0000E046EFA0E03A0
:10DE85006E37EC6DF001C00BF002C00CF00BC00951
:10DE9500F00CC00AF0091E0A1E094A0A2AFF0E09DB
:10DEA500240B6EFF0E0A200C6EB80EB16E0BC0D699
:10DEB500FF0C50D76EA192B18000D0A1A2FED7B1C0
:10DEC50090120015C008F017C009F01BC00AF01C1D
:10DED500C00BF0135095EC70F0155019241D6E1DF4
:10DEE50004086E17C009F01BC00AF01CC00BF01324
:10DEF5005095EC70F015C008F019C009F01BC00A68
:10DF0500F01CC00BF0135051EC70F015C008F0195F
:10DF1500C009F01BC00AF01CC00BF0135017241DDC
:10DF25006E1D0451EC70F01200036E000EAC6E0015
:10DF35000EAB6E03A002D0AC8800D003A203D0AC18
:10DF45008CAB8C00D003A402D0AC8E00D003A6020B
:10DF5500D0AB8802D0AB8A00D003B8AC849E9803BE
:10DF6500AA02D0AB8600D003AC02D09D8A01D09D19
:10DF75009A9E9A03AE02D09D8801D09D9801C0AFAC
:10DF8500FF0250B06EAC8AAB8E949C948EACB8AC4C
:10DF9500BE02D0948C00D01200000E066E02AE07B1
:10DFA500D0016C021ED8B0022A010E066E00D00404
:10DFB500AE05D0036C041ED8B0042A00D00350046B
:10DFC50010D8B41DD0010E056E05D0D890033604C7
:10DFD50036052A00D004BE02D0F8D700D003500180
:10DFE5005C04500258D8A005D00350015E045002CD
:10DFF5005A00D0D89004320332052EF0D700D0064F
:10E0050050D8B405D0016C021ED8B0022A00D00148
:10E01500C001F002C002F000D01200838E6BC00177
:10E02500F06CC002F0FD0E036EFF0E046EA8EC6DE1
:10E03500F00A0E296E6BC02AF06CC02BF0FF0E2D76
:10E045006E2C68000E2F6E000E2E6E010E306E784F
:10E055000E5AEC73F0F7EC6CF0839E6BC001F06C1C
:10E06500C002F0FB0E036EFF0E046EA8EC6DF00A05
:10E075000E296E6BC02AF06CC02BF0FF0E2D6E2C96
:10E0850068000E2F6E000E2E6E010E306E780E5A41
:10E09500EC73F0F7EC6CF0B8EC78F01200126E80CF
:10E0A5000E12603FD09F0E086401D03BD0FF0E0CCE
:10E0B5006EFF0E0D6E095008C00EF00F6A0E260099
:10E0C5000E0F220C500E260D500F220FBE0BD00F37
:10E0D5005004E1A00E0E5CD8A005D008500008A0A1
:10E0E5000F096E00D00B50106E0AC011F008C00465
:10E0F500F012C005F0085009240C6E0C04066E12CF
:10E1050050EBEC6EF08380839207D01050CDEC6C11
:10E11500F01150CDEC6CF000D009060928D8A4F513
:10E12500D783821200126E800E12603FD09F0E08B8
:10E135006401D03BD0FF0E0C6EFF0E0D6E09501220
:10E14500C00EF00F6A0E26000E0F220C500E260D83
:10E15500500F220FBE0BD00F5004E1800E0E5CD87D
:10E16500A005D012500008800F096E00D00B50108A
:10E175006E0AC011F008C004F0125009240C6E0C90
:10E1850004056E08C006F01250EBEC6EF083808338
:10E195009207D01050CDEC6CF01150CDEC6CF00026
:10E1A500D009060928D8A4F5D783821200000E06E7
:10E1B5006E04AE07D0036C041ED8B0042A010E0607
:10E1C5006E00D002AE07D0016C021ED8B0022A0143
:10E1D5000E061A00D0000E086E000E076E035004DE
:10E1E50010D8B421D0010E056E05D0D890033604A1
:10E1F50036052A00D004BE02D0F8D700D0D8900743
:10E205003608360350015C04500258D8A006D003E6
:10E2150050015E0450025A078000D0D890043203A2
:10E2250032052EECD700D00650D8B405D0076C08BF
:10E235001ED8B0082A00D007C001F008C002F000BF
:10E24500D0120003AE17D001C007F002C008F003DA
:10E25500C009F0071E081E091E072A000E0822091C
:10E2650022000E0724016E000E0820026E800E09A2
:10E2750020036E00D006AE17D004C007F005C00815
:10E28500F006C009F0071E081E091E072A000E0821
:10E29500220922000E0724046E000E0820056E8058
:10E2A5000E0920066E00D0000E011A000E021A801B
:10E2B5000E031A000E041A000E051A800E061A0423
:10E2C50050015C0550025806500358D8B002D0D80A
:10E2D5009002D0D88000D01200ECEC6CF0A6EC6C6B
:10E2E500F0D7EC6CF0700ED36EF19E4EEC7BF02403
:10E2F500EC6DF001C03FF002C040F03FC001F040BE
:10E30500C002F0000E046E050E036E37EC6DF001D1
:10E31500C009F002C00AF0C1EC6DF009C00DF00AA9
:10E32500C00EF00BC00FF0000E106E800E116E4483
:10E335000E126EC9EC73F00DC064F00EC065F00FDF
:10E34500C066F064C001F065C002F066C003F0006D
:10E355000E046E600E056E400E066E24EC71F0D84C
:10E36500B002D0010E01D0000E716E00D07150D8F0
:10E37500B403D0D7EC75F0FAD789EC72F0F7D70073
:10E38500EF00F03B6E57D03AC001F0026A000E0470
:10E395006E0A0E036ED9EC70F00150300F4E6E3AD6
:10E3A500C001F0026A000E046E0A0E036ECFEC6F18
:10E3B500F00150300F4F6E1E0E296E4E0E2A6E0064
:10E3C5000E2B6E070E2D6E2C68000E2F6E000E2E76
:10E3D5006E020E306E020E5AEC73F034D03AC00164
:10E3E500F0026A000E046E0A0E036ED9EC70F0019D
:10E3F50050300F516E3AC001F0026A000E046E0AE9
:10E405000E036ECFEC6FF00150300F526E5A0E298D
:10E415006E510E2A6E000E2B6E000E2D6E1F0E2CE9
:10E425006E000E2F6E000E2E6E020E306E020E5A0C
:10E43500EC73F008D03B50000AD8B4A5D7020AD82F
:10E44500B4CDD700D012000450D8B405D001500285
:10E45500100310D8A40ED0000E016E000E026E003F
:10E465000E036E53D006D0042AD89003320232012F
:10E475003200D0000E0114066E000E0214076EFE67
:10E485000E0314086E065007100810D8B40ED0EB12
:10E49500D70CD0042A010E0126000E0222000E031D
:10E4A50022D89003320232013200D0000E01140648
:10E4B5006E000E0214076EFF0E0314086E06500759
:10E4C500100810D8B408D0E5D706D00406D89001B6
:10E4D500360236033600D002BE04D0020E0460F5C3
:10E4E500D700D004B002D0029E00D0D890043204E8
:10E4F5005003120550D8B402D0038E00D001C001DC
:10E50500F002C002F003C003F000D01200000E6854
:10E515006E000E676E84944E0E546E010EA4EC6E62
:10E52500F0010E3EEC6EF0010E60EC6EF0020E8214
:10E53500EC6EF0080E60EC6DF0030E82EC6EF003ED
:10E545000E60EC6DF0010E82EC6EF082A41FD0021D
:10E555000E60EC6EF0060E60EC6DF0030E60EC6E76
:10E56500F0030E60EC6DF0010E60EC6EF0020E3EF5
:10E57500EC6EF0080E60EC6DF0030E3EEC6EF003F1
:10E585000E60EC6DF0010E3EEC6EF010D0020E3E0A
:10E59500EC6EF0080E60EC6DF0030E3EEC6EF003D1
:10E5A5000E60EC6DF0010E3EEC6EF000D082A21014
:10E5B500D0020EA4EC6EF0060E60EC6DF0030EA416
:10E5C500EC6EF0030E60EC6DF0010EA4EC6EF00045
:10E5D500D01200136E800E136069D09F0E0864017F
:10E5E500D065D0FF0E0D6EFF0E0E6E095013C00FD5
:10E5F500F0106A0F26000E10220D500F260E501037
:10E605002210BE0AD0105004E1800E0F5CD8A00481
:10E61500D013500008800F096EFF0E0D6EFF0E0E11
:10E625006E0A5008C00FF0106A0F26000E10220D5A
:10E63500500F260E50102210BE0BD0105004E1A032
:10E645000E0F5CD8A005D008500008A00F0A6E0078
:10E65500D008C004F0135009240D6E0D04056E0892
:10E66500500A240E6E0E04066E1350EBEC6EF00C81
:10E6750050116E0BC012F0838083920AC008F00817
:10E6850050D8B413D001D011D009C013F01350D80D
:10E69500B40AD001D008D01150CDEC6CF01250CD99
:10E6A500EC6CF01306F3D70806EAD783821200351F
:10E6B5006E35C039F029C038F02AC001F02BC002F0
:10E6C500F0DFEC6DF001C033F002C034F0000E371E
:10E6D5006E000E366E54D04150D8B42CD030500553
:10E6E5000D3950316E326AF3503126F450322232F0
:10E6F500BE21D0325004E1810E315CD8A01BD00080
:10E705000E396E3050070DF3503824030F386EA0C4
:10E715000E386403D0A00E386E00D036502A24D9A6
:10E725006E37502B20DA6E200EDE18D8B425D002B5
:10E73500D023D000D038C01EF036502A24D96E37E9
:10E74500502B20DA6EDF501F6E2CC020F02DC0211B
:10E75500F02EC022F02FC023F030C024F0395077BE
:10E76500EC76F03050060DF3503924396E800E39B1
:10E775006403D0800E396E00D0364A372A00D03374
:10E7850050365C34503758D8A0A6D712000FC013A6
:10E79500F0146A156A0E34133601E3148013501A07
:10E7A5006E1A50D8A402D00ED061D012C013F01446
:10E7B5006A156A1134133601E3148013501B6E1B5E
:10E7C50050D8A407D0000E0D6E000E0E6E000E0F71
:10E7D5006E4DD0000E176E000E186E000E196E1BD2
:10E7E50050890F1A5E0FC01BF012501B1A800E1BAA
:10E7F500160E8EFF0E0D16FF0E0E16000E0F1611BD
:10E805008EFF0E1016FF0E1116000E1216180E169C
:10E815006E00D0D89017361836193610500D5C1189
:10E82500500E5812500F58D8A007D010500D5E1139
:10E83500500E5A12500F5A1780D8900D360E360FBB
:10E8450036162EE7D700D017C001F018C002F01910
:10E85500C003F01AC004F01BC005F026EC72F001ED
:10E86500C00DF002C00EF003C00FF000D01200E0A2
:10E875000EABEC6CF0020EB3EC6CF01C0EB3EC6C52
:10E88500F0070EB3EC6CF0120EB3EC6CF0370EB370
:10E89500EC6CF0320EB3EC6CF0290EB3EC6CF02D91
:10E8A5000EB3EC6CF0290EB3EC6CF0250EB3EC6CEA
:10E8B500F02B0EB3EC6CF0390EB3EC6CF0000EB32C
:10E8C500EC6CF0010EB3EC6CF0030EB3EC6CF010D5
:10E8D5000EB3EC6CF0E10EABEC6CF0030EB3EC6C2C
:10E8E500F01D0EB3EC6CF0070EB3EC6CF0060EB336
:10E8F500EC6CF02E0EB3EC6CF02C0EB3EC6CF02936
:10E905000EB3EC6CF02D0EB3EC6CF02E0EB3EC6C7C
:10E91500F02E0EB3EC6CF0370EB3EC6CF03F0EB38B
:10E92500EC6CF0000EB3EC6CF0000EB3EC6CF00286
:10E935000EB3EC6CF0100EB3EC6CF0130EABEC6C8C
:10E94500F0000E086E0A0E076E3BEC6FF0290EAB59
:10E95500EC6CF0000E086E640E076E3BEC6FF01267
:10E9650000010EABEC6CF0000E086E960E076E3BC8
:10E97500EC6FF0110EABEC6CF0010E086EF40E07A7
:10E985006E3BEC6FF0B10EABEC6CF0010EB3EC6CC2
:10E99500F02C0EB3EC6CF02D0EB3EC6CF0B20EABAC
:10E9A500EC6CF0010EB3EC6CF02C0EB3EC6CF02DAE
:10E9B5000EB3EC6CF0B30EABEC6CF0010EB3EC6C7B
:10E9C500F02C0EB3EC6CF02D0EB3EC6CF0010EB325
:10E9D500EC6CF02C0EB3EC6CF02D0EB3EC6CF0B4CB
:10E9E5000EABEC6CF0070EB3EC6CF0C00EABEC6C40
:10E9F500F0A20EB3EC6CF0020EB3EC6CF0840EB327
:10EA0500EC6CF0C10EABEC6CF0C50EB3EC6CF0C267
:10EA15000EABEC6CF00A0EB3EC6CF0000EB3EC6CC4
:10EA2500F0C30EABEC6CF08A0EB3EC6CF02A0EB3AF
:10EA3500EC6CF0C40EABEC6CF08A0EB3EC6CF0EE43
:10EA45000EB3EC6CF0C50EABEC6CF00E0EB3EC6CCB
:10EA5500F0200EABEC6CF0360EABEC6CF0C80EB3E0
:10EA6500EC6CF03A0EABEC6CF0050EB3EC6CF012FE
:10EA75000017C01FF018C020F01F1E201E1F4A20BF
:10EA85002A010E1F24256E000E2020266E000E2260
:10EA95006E010E216E17C01FF018C020F0D8901F10
:10EAA5003620361F1E201E1F4A202A1FC023F02095
:10EAB500C024F0000E286E000E276E17C029F0182E
:10EAC500C02AF067D026BE0BD02906D8A02A060298
:10EAD5000E2326000E2422235025262450262227E5
:10EAE5004A282A020E2126000E22222150252622FE
:10EAF50050262219A025D0295000081524086E2972
:10EB05005029241B241F6E1F28096E1DC00AF01EE4
:10EB1500C00BF01350272451EC70F0275000081556
:10EB250024086E275027241B241F6E1F28096E1DDD
:10EB3500C00AF01EC00BF01350292451EC70F000F0
:10EB4500D019A227D0295000081524086E2950296C
:10EB5500241B241F6E1F28096E1DC00AF01EC00B42
:10EB6500F027500008132451EC70F02750000815C9
:10EB750024086E275027241B241F6E1F28096E1D8D
:10EB8500C00AF01EC00BF029500008132451EC7088
:10EB9500F000D02950275C2850800A1F6E2A50802B
:10EBA5000A1F58D8A08FD71200000E686E010E6795
:10EBB5006E8484440E546E020E82EC6EF0010EA437
:10EBC500EC6EF0010E3EEC6EF0010E60EC6EF08026
:10EBD500AA12D0060E3C6E000E8FEC6DF0090E6089
:10EBE500EC6DF0030E82EC6EF0030E60EC6DF0013F
:10EBF5000E82EC6EF00DD0090E60EC6DF0030E8206
:10EC0500EC6EF0030E60EC6DF0010E82EC6EF00020
:10EC1500D082A433D0020E60EC6EF0060E60EC6D6F
:10EC2500F0030E60EC6EF0030E60EC6DF0010E600B
:10EC3500EC6EF0020E3EEC6EF082A012D0090E3C96
:10EC45006E010E8FEC6DF0070E60EC6DF0030E3E5D
:10EC5500EC6EF0030E60EC6DF0010E3EEC6EF031E3
:10EC6500D0070E60EC6DF0030E3EEC6EF0030E6007
:10EC7500EC6DF0010E3EEC6EF024D0020E3EEC6E13
:10EC8500F082A012D0090E3C6E010E8FEC6DF007DC
:10EC95000E60EC6DF0030E3EEC6EF0030E60EC6D55
:10ECA500F0010E3EEC6EF00DD0070E60EC6DF0033A
:10ECB5000E3EEC6EF0030E60EC6DF0010E3EEC6E58
:10ECC500F000D082A210D0020EA4EC6EF0060E6009
:10ECD500EC6DF0030EA4EC6EF0030E60EC6DF0012C
:10ECE5000EA4EC6EF000D01200266E800E2660A6F3
:10ECF500D09F0E1E6401D0A2D02450D8A403D00109
:10ED05000E246E00D01F0E1F6404D07E0E1F6403F8
:10ED1500D000D03F0E1F6E000E286E040E28640131
:10ED2500D08DD0530E1F6015D0E00E1F24016E024A
:10ED35006AFF0E0222000E046E050E036E37EC6D9F
:10ED4500F028500126000E0222BB0E0124F66EFDAE
:10ED55000E14D0AD0E1F24016E026AFF0E022200B2
:10ED65000E046E050E036E37EC6DF028500126007B
:10ED75000E0222BA0E0124F66EFE0E0220F76E0870
:10ED850000F5CF25F000D0000E276E060E27640192
:10ED9500D053D025A023D02404D8A40CD01E5027AE
:10EDA50024086E20C009F021C00AF02650282477D7
:10EDB500EC6DF03ED027502402F3501E24136E2430
:10EDC500C014F024C015F020C016F021C017F0289B
:10EDD500502402F3502624C6EC6EF02AD02050228F
:10EDE5001804E121502318D8B423D02404D8A40C46
:10EDF500D01E502724086E22C009F023C00AF02631
:10EE050050282477EC6DF014D027502402F3501EBF
:10EE150024136E24C014F024C015F022C016F0236C
:10EE2500C017F028502402F3502624C6EC6EF000DB
:10EE3500D0272AD8902532A9D7282A6FD712003B88
:10EE45006EAED03AC001F0026A000E046E0A0E03DF
:10EE55006ED9EC70F00150300F456E3AC001F002EA
:10EE65006A000E046E0A0E036ECFEC6FF00150308F
:10EE75000F466E1E0E296E450E2A6E000E2B6E076E
:10EE85000E2D6E2C68000E2F6E000E2E6E020E30AB
:10EE95006E640E5AEC73F091D03AC001F0026A002C
:10EEA5000E046E0A0E036ED9EC70F00150300F425D
:10EEB5006E3AC001F0026A000E046E0A0E036ECFB0
:10EEC500EC6FF00150300F436E3C0E296E420E2A56
:10EED5006E000E2B6EFF0E2D6E2C68000E2F6E0031
:10EEE5000E2E6E020E306E640E5AEC73F066D03A3A
:10EEF500C001F0026A000E046E0A0E036ED9EC70B2
:10EF0500F00150300F4B6E3AC001F0026A000E045A
:10EF15006E0A0E036ECFEC6FF00150300F4C6E5A37
:10EF25000E296E4B0E2A6E000E2B6E000E2D6E1FD7
:10EF35000E2C6E000E2F6E000E2E6E020E306E64BD
:10EF45000E5AEC73F03AD03AC001F0026A000E0492
:10EF55006E0A0E036ED9EC70F00150300F486E3A10
:10EF6500C001F0026A000E046E0A0E036ECFEC6F4C
:10EF7500F00150300F496E780E296E480E2A6E004A
:10EF85000E2B6EF80E2D6E1F0E2C6E000E2F6E00C2
:10EF95000E2E6E020E306E640E5AEC73F00ED03BE0
:10EFA50050000AD8B44ED7010AD8B476D7030AD888
:10EFB500B49ED7010AD8B4C7D700D0120010C01428
:10EFC500F011C015F0141E151E144A152A010E1451
:10EFD500241A6E000E15201B6E000E176E010E16FC
:10EFE5006E10C014F011C015F0D8901436153614F3
:10EFF5001E151E144A152A14C018F015C019F00064
:10F005000E1D6E000E1C6E10C01EF011C01FF00EFE
:10F01500501024086E12C009F013C00AF00C507786
:10F02500EC6DF0105000080E24086E12C009F013A4
:10F03500C00AF00C5077EC6DF00EC008F012C00954
:10F04500F013C00AF00C50102477EC6DF00EC008D8
:10F05500F012C009F013C00AF0105000080C247714
:10F06500EC6DF078D01BBE0BD01E06D8A01F060293
:10F075000E1826000E192218501A2619501B221C8C
:10F085004A1D2A020E1626000E172216501A26179A
:10F09500501B220E501E24086E12C009F013C00A20
:10F0A500F00C501C2477EC6DF00E501E24086E12E7
:10F0B500C009F013C00AF01C5000080C2477EC6D51
:10F0C500F01E5000080E24086E12C009F013C00A85
:10F0D500F00C501C2477EC6DF01E5000080E24082F
:10F0E5006E12C009F013C00AF01C5000080C2477FA
:10F0F500EC6DF00E501C24086E12C009F013C00A06
:10F10500F00C501E2477EC6DF00E501C24086E1286
:10F11500C009F013C00AF01E5000080C2477EC6DEE
:10F12500F01C5000080E24086E12C009F013C00A26
:10F13500F00C501E2477EC6DF01C5000080E2408CE
:10F145006E12C009F013C00AF01E5000080C247797
:10F15500EC6DF000D01E501C5C1D50800A146E1F13
:10F1650050800A1458D8A07ED71200000E3C6E3C81
:10F1750050040DF328C26E24EC6DF001C03AF00284
:10F18500C03BF03AC001F03BC002F0000E046E0532
:10F195000E036E37EC6DF001C009F002C00AF0C134
:10F1A500EC6DF009C00DF00AC00EF00BC00FF000B9
:10F1B5000E106E800E116E440E126EC9EC73F00DBA
:10F1C500C064F00EC065F00FC066F064C001F06564
:10F1D500C002F066C003F0330E046E530E056E4098
:10F1E5000E066E24EC71F0D8B002D0010E01D000ED
:10F1F5000E716E000E82B0010E706E000E82B401AB
:10F205000E6F6E000E80BA010E736E000E82B20193
:10F215000E726E7150D8A402D04E0E01D0440E5E0F
:10F225006E7050D8A402D0300E01D0310E5C6E6FD6
:10F2350050D8A402D0300E01D0310E5A6E7350D87A
:10F24500A402D0300E01D0310E626E7250D8A402E5
:10F25500D0300E01D0310E606E00D00A0E296E54EA
:10F265000E2A6E000E2B6EFF0E2D6E2C68000E2FD3
:10F275006E000E2E6E010E306E230E5AEC73F09555
:10F285000E296E5C0E2A6E000E2B6EFF0E2D6E2C57
:10F2950068000E2F6E000E2E6E010E306E060E5A91
:10F2A500EC73F0950E296E5A0E2A6E000E2B6EFF2A
:10F2B5000E2D6E2C68000E2F6E000E2E6E010E3078
:10F2C5006E200E5AEC73F0950E296E620E2A6E00B2
:10F2D5000E2B6EFF0E2D6E2C68000E2F6E000E2E5F
:10F2E5006E010E306E3A0E5AEC73F0950E296E6073
:10F2F5000E2A6E000E2B6EFF0E2D6E2C68000E2F43
:10F305006E000E2E6E010E306E570E5AEC73F09590
:10F315000E296E5E0E2A6E000E2B6EFF0E2D6E2CC4
:10F3250068000E2F6E000E2E6E010E306E700E5A96
:10F33500EC73F01200346E34501E0DF350230F356C
:10F345006E3350D8A467D0000E2C6E280E2B6E3568
:10F35500C02DF02E6A000E306E070E2F6E000E3295
:10F365006E000E316E12EC6FF0000E2C6E3C0E2B03
:10F375006E35C02DF02E6A000E306E070E2F6E0012
:10F385000E326E000E316E12EC6FF0000E2C6E50C8
:10F395000E2B6E35C02DF02E6A000E306E070E2F27
:10F3A5006E000E326E000E316E12EC6FF0000E0D17
:10F3B5006E280E0C6E35C00EF00F6A000E116E072A
:10F3C5000E106EF80E136E000E126EE1EC77F00063
:10F3D5000E0D6E3C0E0C6E35C00EF00F6A000E1150
:10F3E5006E070E106EFF0E136EE00E126EE1EC77D7
:10F3F500F0000E0D6E500E0C6E35C00EF00F6A004B
:10F405000E116E070E106E070E136EE00E126EE1F2
:10F41500EC77F000D03304D8A467D0000E2C6E280A
:10F425000E2B6E35C02DF02E6A000E306E070E2F96
:10F435006EF80E326E000E316E12EC6FF0000E2C6F
:10F445006E3C0E2B6E35C02DF02E6A000E306E0709
:10F455000E2F6E000E326E000E316E12EC6FF00044
:10F465000E2C6E500E2B6E35C02DF02E6A000E3010
:10F475006E070E2F6E000E326E000E316E12EC6F9F
:10F48500F0000E0D6E280E0C6E35C00EF00F6A00E2
:10F495000E116E070E106EF80E136E000E126EE151
:10F4A500EC77F0000E0D6E3C0E0C6E35C00EF00FB5
:10F4B5006A000E116E070E106EFF0E136EE00E122F
:10F4C5006EE1EC77F0000E0D6E500E0C6E35C00E31
:10F4D500F00F6A000E116E070E106E070E136EE028
:10F4E5000E126EE1EC77F000D0030E3318D8A46746
:10F4F500D0000E2C6E280E2B6E35C02DF02E6A0016
:10F505000E306E070E2F6E000E326E000E316E122B
:10F51500EC6FF0000E2C6E3C0E2B6E35C02DF02ED0
:10F525006A000E306E070E2F6EFF0E326EE00E3142
:10F535006E12EC6FF0000E2C6E500E2B6E35C02D3A
:10F54500F02E6A000E306E070E2F6E000E326E0022
:10F555000E316E12EC6FF0000E0D6E280E0C6E352E
:10F56500C00EF00F6A000E116E070E106EF80E1326
:10F575006E000E126EE1EC77F0000E0D6E3C0E0C77
:10F585006E35C00EF00F6A000E116E070E106EFF7D
:10F595000E136EE00E126EE1EC77F0000E0D6E505C
:10F5A5000E0C6E35C00EF00F6A000E116E070E10B0
:10F5B5006E070E136EE00E126EE1EC77F000D002CE
:10F5C5000E3318D8A467D0000E2C6E280E2B6E357E
:10F5D500C02DF02E6A000E306E070E2F6E000E3213
:10F5E5006E000E316E12EC6FF0000E2C6E3C0E2B81
:10F5F5006E35C02DF02E6A000E306E070E2F6E0090
:10F605000E326E000E316E12EC6FF0000E2C6E5045
:10F615000E2B6E35C02DF02E6A000E306E070E2FA4
:10F625006E070E326EE00E316E12EC6FF0000E0DAD
:10F635006E280E0C6E35C00EF00F6A000E116E07A7
:10F645000E106EF80E136E000E126EE1EC77F000E0
:10F655000E0D6E3C0E0C6E35C00EF00F6A000E11CD
:10F665006E070E106EFF0E136EE00E126EE1EC7754
:10F67500F0000E0D6E500E0C6E35C00EF00F6A00C8
:10F685000E116E070E106E070E136EE00E126EE170
:10F69500EC77F000D01200C4EC6CF04BEC6DF00090
:10F6A5000E156E000E146E04EC6DF0800E6B6E0080
:10F6B5000E6C6E6BC001F06CC002F0960E036EFF0F
:10F6C5000E046EA8EC6DF0020E296E6BC02AF06C6C
:10F6D500C02BF0FF0E2D6E2C68000E2F6E000E2E27
:10F6E5006E010E306E020E5AEC73F06BC001F06CB9
:10F6F500C002F0E50E036EFF0E046EA8EC6DF00A75
:10F705000E296E6BC02AF06CC02BF0FF0E2D6E2CEF
:10F7150068000E2F6E000E2E6E010E306E020E5A10
:10F72500EC73F00A0E296E540E2A6E000E2B6EFF36
:10F735000E2D6E2C68000E2F6E000E2E6E010E30F3
:10F745006E230E5AEC73F06BC001F06CC002F0EB47
:10F755000E036EFF0E046EA8EC6DF00A0E296E6B9B
:10F76500C02AF06CC02BF0FF0E2D6E2C68000E2FFA
:10F775006E000E2E6E010E306E320E5AEC73F00ACC
:10F785000E296E560E2A6E000E2B6EFF0E2D6E2C58
:10F7950068000E2F6E000E2E6E010E306E460E5A4C
:10F7A500EC73F06BC001F06CC002F0EF0E036EFF5E
:10F7B5000E046EA8EC6DF00A0E296E6BC02AF06C73
:10F7C500C02BF0FF0E2D6E2C68000E2F6E000E2E36
:10F7D5006E010E306E500E5AEC73F00A0E296E58FB
:10F7E5000E2A6E000E2B6EFF0E2D6E2C68000E2F4E
:10F7F5006E000E2E6E010E306E640E5AEC73F06BB9
:10F80500C001F06CC002F0FD0E036EFF0E046EA881
:10F81500EC6DF00A0E296E6BC02AF06CC02BF0FF60
:10F825000E2D6E2C68000E2F6E000E2E6E010E3002
:10F835006E780E5AEC73F06BC001F06CC002F0CD1F
:10F845000E036EFF0E046EA8EC6DF0140E296E6BA0
:10F85500C02AF06CC02BF0070E2D6E2C68000E2F01
:10F865006E000E2E6E010E306E1E0E5AEC73F000F9
:10F875000E146E1E0E136E000E166E1B0E156E0008
:10F885000E186E3C0E176E000E1A6E120E196E07CC
:10F895000E1C6E1B6864EC6FF0000E2C6E280E2B90
:10F8A5006E000E2E6E230E2D6E000E306E070E2F7F
:10F8B5006EF80E326E000E316E12EC6FF0000E0D0A
:10F8C5006E3C0E0C6E000E0F6E230E0E6E000E11AA
:10F8D5006E070E106EFF0E136EE00E126EE1EC77E2
:10F8E500F0000E0D6E500E0C6E000E0F6E230E0EF8
:10F8F5006E000E116E070E106E070E136EE00E12DF
:10F905006EE1EC77F01E0E296E450E2A6E000E2B69
:10F915006E070E2D6E2C68000E2F6E000E2E6E02D9
:10F925000E306E640E5AEC73F06BC001F06CC002C1
:10F93500F0DE0E036EFF0E046EA8EC6DF0320E299C
:10F945006E6BC02AF06CC02BF0FF0E2D6E2C68007C
:10F955000E2F6E000E2E6E010E306E1E0E5AEC73BB
:10F96500F0000E146E1E0E136E000E166E390E1577
:10F975006E000E186E3C0E176E000E1A6E120E19E2
:10F985006EFF0E1C6E1B6864EC6FF0000E2C6E286B
:10F995000E2B6E000E2E6E410E2D6E000E306E0774
:10F9A5000E2F6EF80E326E000E316E12EC6FF000F7
:10F9B5000E0D6E3C0E0C6E000E0F6E410E0E6E009F
:10F9C5000E116E070E106EFF0E136EE00E126EE135
:10F9D500EC77F0000E0D6E500E0C6E000E0F6E41A2
:10F9E5000E0E6E000E116E070E106E070E136EE0F2
:10F9F5000E126EE1EC77F03C0E296E420E2A6E0077
:10FA05000E2B6EFF0E2D6E2C68000E2F6E000E2E27
:10FA15006E020E306E640E5AEC73F06BC001F06C22
:10FA2500C002F0C10E036EFF0E046EA8EC6DF0501F
:10FA35000E296E6BC02AF06CC02BF0000E2D6E1FC8
:10FA45000E2C6E000E2F6E000E2E6E010E306E1EE9
:10FA55000E5AEC73F0000E146E1E0E136E000E1689
:10FA65006E570E156E000E186E3C0E176E000E1AB0
:10FA75006E120E196E000E1C6E1F0E1B6E64EC6F5F
:10FA8500F0000E0D6E280E0C6E000E0F6E5F0E0E42
:10FA95006E000E116E070E106EF80E136E000E122C
:10FAA5006EE1EC77F0000E0D6E3C0E0C6E000E0F45
:10FAB5006E5F0E0E6E000E116E070E106EFF0E13AA
:10FAC5006EE00E126EE1EC77F0000E2C6E500E2BF0
:10FAD5006E000E2E6E5F0E2D6E000E306E070E2F11
:10FAE5006E070E326EE00E316E12EC6FF05A0E2973
:10FAF5006E4B0E2A6E000E2B6E000E2D6E1F0E2CF9
:10FB05006E000E2F6E000E2E6E020E306E640E5AB3
:10FB1500EC73F06BC001F06CC002F0D70E036EFF02
:10FB25000E046EA8EC6DF06E0E296E6BC02AF06C9B
:10FB3500C02BF0F80E2D6E1F0E2C6E000E2F6E00D2
:10FB45000E2E6E010E306E1E0E5AEC73F0000E1462
:10FB55006E1E0E136E000E166E750E156E000E18C7
:10FB65006E3C0E176E000E1A6E120E196EF80E1CF4
:10FB75006E1F0E1B6E64EC6FF0000E2C6E280E2BA4
:10FB85006E000E2E6E7D0E2D6E000E306E070E2F42
:10FB95006EF80E326E000E316E12EC6FF0000E0D27
:10FBA5006E3C0E0C6E000E0F6E7D0E0E6E000E116D
:10FBB5006E070E106EFF0E136EE00E126EE1EC77FF
:10FBC500F0000E0D6E500E0C6E000E0F6E7D0E0EBB
:10FBD5006E000E116E070E106E070E136EE00E12FC
:10FBE5006EE1EC77F0780E296E480E2A6E000E2B2A
:10FBF5006EF80E2D6E1F0E2C6E000E2F6E000E2E43
:10FC05006E020E306E640E5AEC73F01E0E296E4EA7
:10FC15000E2A6E000E2B6E070E2D6E2C68000E2F11
:10FC25006E000E2E6E020E306E020E5AEC73F06BE5
:10FC3500C001F06CC002F0F70E036EFF0E046EA853
:10FC4500EC6DF0140E296E6BC02AF06CC02BF0071A
:10FC55000E2D6E2C68000E2F6E000E2E6E010E30CE
:10FC65006E030E5AEC73F06BC001F06CC002F0F33A
:10FC75000E036EFF0E046EA8EC6DF0500E296E6B30
:10FC8500C02AF06CC02BF0000E2D6E1F0E2C6E00DE
:10FC95000E2F6E000E2E6E010E306E030E5AEC7393
:10FCA500F05A0E296E510E2A6E000E2B6E000E2D87
:10FCB5006E1F0E2C6E000E2F6E000E2E6E020E3075
:10FCC5006E020E5AEC73F06BC001F06CC002F0AC22
:10FCD5000E036EFF0E046EA8EC6DF08C0E296E6B94
:10FCE500C02AF06CC02BF0FF0E2D6E2C68000E2F75
:10FCF5006E000E2E6E010E306E010E5AEC73F095ED
:10FD05000E296E5C0E2A6E000E2B6EFF0E2D6E2CCC
:10FD150068000E2F6E000E2E6E010E306E060E5A06
:10FD2500EC73F0950E296E5A0E2A6E000E2B6EFF9F
:10FD35000E2D6E2C68000E2F6E000E2E6E010E30ED
:10FD45006E200E5AEC73F0950E296E620E2A6E0027
:10FD55000E2B6EFF0E2D6E2C68000E2F6E000E2ED4
:10FD65006E010E306E3A0E5AEC73F0950E296E60E8
:10FD75000E2A6E000E2B6EFF0E2D6E2C68000E2FB8
:10FD85006E000E2E6E010E306E570E5AEC73F09506
:10FD95000E296E5E0E2A6E000E2B6EFF0E2D6E2C3A
:10FDA50068000E2F6E000E2E6E010E306E700E5A0C
:10FDB500EC73F0120000000000000000005F00007E
:10FDC5000007000700147F147F14242A7F2A1223BA
:10FDD5001308646236495620500008070300001CCA
:10FDE5002241000041221C002A1C7F1C2A08083ED3
:10FDF50008080080703000080808080800006060E6
:10FE05000020100804023E5149453E00427F400053
:10FE150072494949462141494D331814127F10272B
:10FE2500454545393C4A494931412111090736497A
:10FE3500494936464949291E00001400000040344E
:10FE45000000000814224114141414140041221453
:10FE55000802015909063E415D594E7C1211127C7A
:10FE65007F494949363E414141227F4141413E7FDB
:10FE7500494949417F090909013E414151737F08BB
:10FE850008087F00417F41002040413F017F081461
:10FE950022417F404040407F021C027F7F040810C2
:10FEA5007F3E4141413E7F090909063E4151215EA0
:10FEB5007F09192946264949493203017F01033F34
:10FEC5004040403F1F2040201F3F4038403F6314C3
:10FED50008146303047804036159494D43007F41C5
:10FEE50041410204081020004141417F0402010202
:10FEF5000440404040400003070800205454784027
:10FF05007F284444383844444428384444287F38BA
:10FF15005454541800087E090218A4A49C787F083C
:10FF250004047800447D40002040403D007F1028B7
:10FF3500440000417F40007C047804787C08040478
:10FF4500783844444438FC1824241818242418FC10
:10FF55007C08040408485454542404043F44243CB5
:10FF65004040207C1C2040201C3C4030403C442824
:10FF75001028444C9090907C4464544C44000836BE
:10FF8500410000007700000041360800020102042C
:10FF950002454345333330314C20537072696E67E7
:10FFA5002032312D5331004557502045574C5420B0
:10FFB5004E5350204E534C54204D44004E4F5254F6
:10FFC500482F534F55544800454153542F574553D7
:10FFD50054004E2F53204C5400452F57204C5400AD
:10FFE5004D6F64653A0046523A0046533A00504E0A
:0BFFF50053005045570020002A000078
:020000040001F9
:01000000FF00
:020000040020DA
:08000000FFFFFFFFFFFFFFFF00
:020000040030CA
:0E000000FF08191EFF8281FF0FC00FE00F40A6
:00000001FF
