:040000000CEF00F011
:10000800FACF01F0FBCF02F0E9CF03F0D2ED08F010
:1000180057EF0AF07AEC0BF0FDEC0AF0000E236EB5
:10002800000E226E4DEC0BF0870E626E000E636EB2
:1000380062C00FF063C010F0950E116EFF0E126EC5
:10004800B6EC0AF0020E0001A66F62C0A7F063C00A
:10005800A8F0FF0E0001AA6FA969000E0001AC6F9D
:10006800000EAB6F010E0001AD6F020E4FEC06F0F3
:1000780062C00FF063C010F0E40E116EFF0E126E36
:10008800B6EC0AF00A0E0001A66F62C0A7F063C0C2
:10009800A8F0FF0E0001AA6FA969000E0001AC6F5D
:1000A800000EAB6F010E0001AD6F020E4FEC06F0B3
:1000B8000A0E0001A66F4C0E0001A76F000E00018A
:1000C800A86FFF0E0001AA6FA969000E0001AC6FAE
:1000D800000EAB6F010E0001AD6F230E4FEC06F062
:1000E80062C00FF063C010F0EA0E116EFF0E126EC0
:1000F800B6EC0AF00A0E0001A66F62C0A7F063C052
:10010800A8F0FF0E0001AA6FA969000E0001AC6FEC
:10011800000EAB6F010E0001AD6F320E4FEC06F012
:100128000A0E0001A66F4E0E0001A76F000E000117
:10013800A86FFF0E0001AA6FA969000E0001AC6F3D
:10014800000EAB6F010E0001AD6F460E4FEC06F0CE
:1001580062C00FF063C010F0EE0E116EFF0E126E4B
:10016800B6EC0AF00A0E0001A66F62C0A7F063C0E1
:10017800A8F0FF0E0001AA6FA969000E0001AC6F7C
:10018800000EAB6F010E0001AD6F500E4FEC06F084
:100198000A0E0001A66F500E0001A76F000E0001A5
:1001A800A86FFF0E0001AA6FA969000E0001AC6FCD
:1001B800000EAB6F010E0001AD6F640E4FEC06F040
:1001C80062C00FF063C010F0FC0E116EFF0E126ECD
:1001D800B6EC0AF00A0E0001A66F62C0A7F063C071
:1001E800A8F0FF0E0001AA6FA969000E0001AC6F0C
:1001F800000EAB6F010E0001AD6F780E4FEC06F0EC
:1002080062C00FF063C010F0CC0E116EFF0E126EBC
:10021800B6EC0AF0140E0001A66F62C0A7F063C026
:10022800A8F0070E0001AA6FA969000E0001AC6FC3
:10023800000EAB6F010E0001AD6F1E0E4FEC06F005
:10024800000E226E1E0E216E000E246E1B0E236EF3
:10025800000E266E3C0E256E000E286E120E276EBE
:10026800070E2A6E296882EC09F0000E0001A76FBC
:10027800280EA66F000E0001A96F230EA86F000EAE
:100288000001AB6F070EAA6FF80E0001AD6F000EEC
:10029800AC6FB5EC09F0000E1B6E3C0E1A6E000E2A
:1002A8001D6E230E1C6E000E1F6E070E1E6EFF0EB7
:1002B800216EE00E206E31EC04F0000E1B6E500E25
:1002C8001A6E000E1D6E230E1C6E000E1F6E070E9A
:1002D8001E6E070E216EE00E206E31EC04F01E0E2D
:1002E8000001A66F3D0E0001A76F000E0001A86F68
:1002F800070E0001AA6FA969000E0001AC6F000E7D
:10030800AB6F020E0001AD6F640E4FEC06F062C0D9
:100318000FF063C010F0DD0E116EFF0E126EB6EC1A
:100328000AF0320E0001A66F62C0A7F063C0A8F001
:10033800FF0E0001AA6FA969000E0001AC6F000E44
:10034800AB6F010E0001AD6F1E0E4FEC06F0000EF4
:10035800226E1E0E216E000E246E390E236E000EC4
:10036800266E3C0E256E000E286E120E276EFF0EAE
:100378002A6E296882EC09F0000E0001A76F280E8A
:10038800A66F000E0001A96F410EA86F000E0001B4
:10039800AB6F070EAA6FF80E0001AD6F000EAC6FC1
:1003A800B5EC09F0000E1B6E3C0E1A6E000E1D6EA9
:1003B800410E1C6E000E1F6E070E1E6EFF0E216E84
:1003C800E00E206E31EC04F0000E1B6E500E1A6E1B
:1003D800000E1D6E410E1C6E000E1F6E070E1E6E67
:1003E800070E216EE00E206E31EC04F03C0E000189
:1003F800A66F3A0E0001A76F000E0001A86FFF0E4E
:100408000001AA6FA969000E0001AC6F000EAB6F66
:10041800020E0001AD6F640E4FEC06F062C00FF0E3
:1004280063C010F0C00E116EFF0E126EB6EC0AF02B
:10043800500E0001A66F62C0A7F063C0A8F0000EBE
:100448000001AA6F1F0EA96F000E0001AC6F000E0D
:10045800AB6F010E0001AD6F1E0E4FEC06F0000EE3
:10046800226E1E0E216E000E246E570E236E000E95
:10047800266E3C0E256E000E286E120E276E000E9C
:100488002A6E1F0E296E82EC09F0000E1B6E280ED4
:100498001A6E000E1D6E5F0E1C6E000E1F6E070E8C
:1004A8001E6EF80E216E000E206E31EC04F0000E68
:1004B8001B6E3C0E1A6E000E1D6E5F0E1C6E000E3B
:1004C8001F6E070E1E6EFF0E216EE00E206E31ECC1
:1004D80004F0000E0001A76F500EA66F000E000179
:1004E800A96F5F0EA86F000E0001AB6F070EAA6F11
:1004F800070E0001AD6FE00EAC6FB5EC09F05A0EB7
:100508000001A66F430E0001A76F000E0001A86F3F
:10051800000E0001AA6F1F0EA96F000E0001AC6F3C
:10052800000EAB6F020E0001AD6F640E4FEC06F0CB
:1005380062C00FF063C010F0D60E116EFF0E126E7F
:10054800B6EC0AF06E0E0001A66F62C0A7F063C099
:10055800A8F0F80E0001AA6F1F0EA96F000E000187
:10056800AC6F000EAB6F010E0001AD6F1E0E4FECAD
:1005780006F0000E226E1E0E216E000E246E750E01
:10058800236E000E266E3C0E256E000E286E120E8F
:10059800276EF80E2A6E1F0E296E82EC09F0000EE7
:1005A8000001A76F280EA66F000E0001A96F7D0E2F
:1005B800A86F000E0001AB6F070EAA6FF80E0001BE
:1005C800AD6F000EAC6FB5EC09F0000E1B6E3C0E63
:1005D8001A6E000E1D6E7D0E1C6E000E1F6E070E2D
:1005E8001E6EFF0E216EE00E206E31EC04F0000E40
:1005F8001B6E500E1A6E000E1D6E7D0E1C6E000EC8
:100608001F6E070E1E6E070E216EE00E206E31EC77
:1006180004F0780E0001A66F400E0001A76F000ECF
:100628000001A86FF80E0001AA6F1F0EA96F000E37
:100638000001AC6F000EAB6F020E0001AD6F640ECF
:100648004FEC06F01E0E0001A66F460E0001A76FC4
:10065800000E0001A86F070E0001AA6FA969000E1D
:100668000001AC6F000EAB6F020E0001AD6F020E01
:100678004FEC06F062C00FF063C010F0F60E116E7A
:10068800FF0E126EB6EC0AF0140E0001A66F62C0DF
:10069800A7F063C0A8F0070E0001AA6FA969000EB1
:1006A8000001AC6F000EAB6F010E0001AD6F030EC1
:1006B8004FEC06F062C00FF063C010F0F20E116E3E
:1006C800FF0E126EB6EC0AF0500E0001A66F62C063
:1006D800A7F063C0A8F0000E0001AA6F1F0EA96F53
:1006E800000E0001AC6F000EAB6F010E0001AD6F84
:1006F800030E4FEC06F05A0E0001A66F490E0001DA
:10070800A76F000E0001A86F000E0001AA6F1F0E50
:10071800A96F000E0001AC6F000EAB6F020E000156
:10072800AD6F020E4FEC06F062C00FF063C010F020
:10073800AB0E116EFF0E126EB6EC0AF08C0E0001B5
:10074800A66F62C0A7F063C0A8F0FF0E0001AA6FF1
:10075800A969000E0001AC6F000EAB6F010E00011D
:10076800AD6F010E4FEC06F0950E0001A66F540E0A
:100778000001A76F000E0001A86FFF0E0001AA6F0D
:10078800A969000E0001AC6F000EAB6F010E0001ED
:10079800AD6F060E4FEC06F0950E0001A66F520ED7
:1007A8000001A76F000E0001A86FFF0E0001AA6FDD
:1007B800A969000E0001AC6F000EAB6F010E0001BD
:1007C800AD6F200E4FEC06F0950E0001A66F5A0E85
:1007D8000001A76F000E0001A86FFF0E0001AA6FAD
:1007E800A969000E0001AC6F000EAB6F010E00018D
:1007F800AD6F3A0E4FEC06F0950E0001A66F580E3D
:100808000001A76F000E0001A86FFF0E0001AA6F7C
:10081800A969000E0001AC6F000EAB6F010E00015C
:10082800AD6F570E4FEC06F0950E0001A66F560EF1
:100838000001A76F000E0001A86FFF0E0001AA6F4C
:10084800A969000E0001AC6F000EAB6F010E00012C
:10085800AD6F700E4FEC06F012001EC022F01FC0E4
:1008680023F0221E231E224A232A010E2224286E48
:10087800000E2320296E000E256E010E246E1EC068
:1008880022F01FC023F0D89022362336221E231EC2
:10089800224A232A22C026F023C027F0000E2B6EFE
:1008A800000E2A6E1EC02CF01FC02DF01C501E24F6
:1008B800166E20C017F021C018F01A50CFEC0AF0BD
:1008C8001E5000081C24166E20C017F021C018F016
:1008D8001A50CFEC0AF01CC016F020C017F021C047
:1008E80018F01A501E24CFEC0AF01CC016F020C0D5
:1008F80017F021C018F01E5000081A24CFEC0AF097
:1009080078D029BE0BD02C06D8A02D06020E26269C
:10091800000E272226502826275029222A4A2B2A29
:10092800020E2426000E252224502826255029228E
:100938001C502C24166E20C017F021C018F01A5035
:100948002A24CFEC0AF01C502C24166E20C017F075
:1009580021C018F02A5000081A24CFEC0AF02C50B5
:1009680000081C24166E20C017F021C018F01A5079
:100978002A24CFEC0AF02C5000081C24166E20C044
:1009880017F021C018F02A5000081A24CFEC0AF0FA
:100998001C502A24166E20C017F021C018F01A50D7
:1009A8002C24CFEC0AF01C502A24166E20C017F015
:1009B80021C018F02C5000081A24CFEC0AF02A5055
:1009C80000081C24166E20C017F021C018F01A5019
:1009D8002C24CFEC0AF02A5000081C24166E20C0E4
:1009E80017F021C018F02C5000081A24CFEC0AF098
:1009F80000D02C502A5C2B50800A226E2D50800A81
:100A08002258D8A07ED71200346E800E3460A6D04B
:100A18009F0E2C6401D0A2D03250D8A403D0010E6E
:100A2800326E00D01F0E2D6404D07E0E2D6403D0CC
:100A380000D03F0E2D6E000E366E040E366401D0C7
:100A48008DD0530E2D6015D0E00E2D240F6E106A38
:100A5800FF0E1022000E126E050E116E27EC0BF021
:100A680036500F26000E10225D0E0F24F66EFD0E76
:100A780014D0AD0E2D240F6E106AFF0E1022000E3A
:100A8800126E050E116E27EC0BF036500F26000E75
:100A980010225C0E0F24F66EFE0E1020F76E080072
:100AA800F5CF33F000D0000E356E060E356401D058
:100AB80053D033A023D03204D8A40CD02C503524E2
:100AC800166E2EC017F02FC018F034503624CFEC15
:100AD8000AF03ED035503202F3502C24216E32C039
:100AE80022F032C023F02EC024F02FC025F036505B
:100AF8003202F350342432EC0AF02AD02E50301847
:100B080004E12F503118D8B423D03204D8A40CD023
:100B18002C503524166E30C017F031C018F0345000
:100B28003624CFEC0AF014D035503202F3502C247E
:100B3800216E32C022F032C023F030C024F031C020
:100B480025F036503202F350342432EC0AF000D04B
:100B5800352AD8903332A9D7362A6FD7120025C044
:100B68002DF026C02EF02D1E2E1E2D4A2E2A010EE7
:100B78002D24336E000E2E20346E000E306E010EC2
:100B88002F6E25C02DF026C02EF0D8902D362E368B
:100B98002D1E2E1E2D4A2E2A2DC031F02EC032F0C9
:100BA800000E366E000E356E25C037F026C038F0C0
:100BB80067D034BE0BD03706D8A03806020E3126CF
:100BC800000E32223150332632503422354A362A2A
:100BD800020E2F26000E30222F503326305034229A
:100BE80027A025D0375000082324166E3750372405
:100BF80029242D6E2D28176E2BC018F02CC019F043
:100C0800215035244AEC08F0355000082324166E8C
:100C18003550352429242D6E2D28176E2BC018F039
:100C28002CC019F0215037244AEC08F000D027A234
:100C380027D0375000082324166E3750372429242C
:100C48002D6E2D28176E2BC018F02CC019F03550BA
:100C5800000821244AEC08F0355000082324166EB9
:100C68003550352429242D6E2D28176E2BC018F0E9
:100C78002CC019F03750000821244AEC08F000D0A5
:100C88003750355C3650800A2D6E3850800A2D5802
:100C9800D8A08FD712000001AE6FAEC0B4F0A6C0C6
:100CA800B3F0A7C00FF0A8C010F078EC0AF00FC09E
:100CB800AFF010C0B0F0000E0001B26F000EB16FBF
:100CC8006BD03950D8B438D00001AD51050D0001B2
:100CD800B451376E386AF3503726F450382238BE8C
:100CE8002BD0385004E1810E375CD8A025D0000EF7
:100CF8000001B46F0001AD51070DF3500001B32599
:100D0800030F0001B36FA00E0001B36504D0A00E5D
:100D18000001B36F00D00001B1510001A725D96EC1
:100D28000001B2510001A821DA6E200EDE18D8B4F5
:100D38002FD002D02DD000D0B3C02CF00001B1517B
:100D48000001A725D96E0001B2510001A821DA6E71
:100D5800DF502D6EA9C02EF0AAC02FF0ABC030F026
:100D6800ACC031F0ADC032F00001B45108EC05F070
:100D78000001AD51060DF3500001B4250001B46F18
:100D8800800E0001B46504D0800E0001B46F00D05D
:100D98000001B14BB22B00D00001AF510001B15D91
:100DA8000001B0510001B259D8A08BD71200010E32
:100DB8008BEC0BF0000E166E960E156EE2EC09F039
:100DC800110E8BEC0BF0010E166EF40E156EE2ECA4
:100DD80009F0B10E8BEC0BF0010E83EC0BF02C0E2E
:100DE80083EC0BF02D0E83EC0BF0B20E8BEC0BF0BA
:100DF800010E83EC0BF02C0E83EC0BF02D0E83EC24
:100E08000BF0B30E8BEC0BF0010E83EC0BF02C0EF9
:100E180083EC0BF02D0E83EC0BF0010E83EC0BF042
:100E28002C0E83EC0BF02D0E83EC0BF0B40E8BEC38
:100E38000BF0070E83EC0BF0C00E8BEC0BF0A20E40
:100E480083EC0BF0020E83EC0BF0840E83EC0BF0BA
:100E5800C10E8BEC0BF0C50E83EC0BF0C20E8BECC5
:100E68000BF00A0E83EC0BF0000E83EC0BF0C30EB4
:100E78008BEC0BF08A0E83EC0BF02A0E83EC0BF054
:100E8800C40E8BEC0BF08A0E83EC0BF0EE0E83ECA9
:100E98000BF0C50E8BEC0BF00E0E83EC0BF0200E56
:100EA8008BEC0BF0360E8BEC0BF0C80E83EC0BF0D2
:100EB8003A0E8BEC0BF0050E83EC0BF01200E00EF3
:100EC8008BEC0BF0020E83EC0BF01C0E83EC0BF09A
:100ED800070E83EC0BF0120E83EC0BF0370E83EC4D
:100EE8000BF0320E83EC0BF0290E83EC0BF02D0E79
:100EF80083EC0BF0290E83EC0BF0250E83EC0BF042
:100F08002B0E83EC0BF0390E83EC0BF0000E83EC08
:100F18000BF0010E83EC0BF0030E83EC0BF0100EBC
:100F280083EC0BF0E10E8BEC0BF0030E83EC0BF073
:100F38001D0E83EC0BF0070E83EC0BF0060E83EC12
:100F48000BF02E0E83EC0BF02C0E83EC0BF0290E1D
:100F580083EC0BF02D0E83EC0BF02E0E83EC0BF0D4
:100F68002E0E83EC0BF0370E83EC0BF03F0E83EC68
:100F78000BF0000E83EC0BF0000E83EC0BF0020E6E
:100F880083EC0BF0100E83EC0BF0130E8BEC0BF0D4
:100F9800000E166E0A0E156EE2EC09F0290E8BECA7
:100FA8000BF0000E166E640E156EE2EC09F01200DE
:100FB800216E800E216069D09F0E166401D065D025
:100FC800FF0E1B6EFF0E1C6E175021C01DF01E6A0F
:100FD8001D26000E1E221B501D261C501E221EBE42
:100FE8000AD01E5004E1800E1D5CD8A004D0215008
:100FF8000008800F176EFF0E1B6EFF0E1C6E185038
:1010080016C01DF01E6A1D26000E1E221B501D262E
:101018001C501E221EBE0BD01E5004E1A00E1D5CEB
:10102800D8A005D016500008A00F186E00D016C022
:1010380012F0215017241B6E1B04136E165018242F
:101048001C6E1C04146E21500BEC0AF01A501F6E13
:1010580019C020F08380839218C016F01650D8B4B7
:1010680013D001D011D017C021F02150D8B40AD024
:1010780001D008D01F5066EC0BF0205066EC0BF046
:101088002106F3D71606EAD783821200206E800E57
:1010980020603FD09F0E166401D03BD0FF0E1A6E21
:1010A800FF0E1B6E175016C01CF01D6A1C26000E82
:1010B8001D221A501C261B501D221DBE0BD01D5070
:1010C80004E1A00E1C5CD8A005D016500008A00FA3
:1010D800176E00D019501E6E18C01FF016C012F0FF
:1010E80020C013F0165017241A6E1A04146E2050DC
:1010F8000BEC0AF08380839207D01E5066EC0BF04D
:101108001F5066EC0BF000D017061728D8A4F5D7A7
:1011180083821200206E800E20603FD09F0E1664DE
:1011280001D03BD0FF0E1A6EFF0E1B6E175020C069
:101138001CF01D6A1C26000E1D221A501C261B506E
:101148001D221DBE0BD01D5004E1800E1C5CD8A0D2
:1011580005D020500008800F176E00D019501E6E61
:1011680018C01FF016C012F0205017241A6E1A0467
:10117800136E16C014F020500BEC0AF08380839293
:1011880007D01E5066EC0BF01F5066EC0BF000D039
:1011980017061728D8A4F5D7838212000600EACFCD
:1011A80004F0E1CF05F0E2CF06F0D9CF07F0DACFAF
:1011B80008F0F3CF09F0F4CF0AF0F6CF0BF0F7CF31
:1011C8000CF0F8CF0DF0F5CF0EF0F2A203D0A6EC9C
:1011D8000BF000D0F0A003D0A0EC0BF000D0F0A2F0
:1011E80003D09AEC0BF000D00EC0F5FF0DC0F8FF4D
:1011F8000CC0F7FF0BC0F6FF0AC0F4FF09C0F3FFED
:1012080008C0DAFF07C0D9FF06C0E2FF05C0E1FF4A
:1012180004C0EAFF03C0E9FF02C0FBFF01C0FAFFF8
:101228001100116E000EAC6E000EAB6E11A002D054
:10123800AC8800D011A203D0AC8CAB8C00D011A428
:1012480002D0AC8E00D011A602D0AB8802D0AB8AF7
:1012580000D011B8AC849E9811AA02D0AB8600D0F9
:1012680011AC02D09D8A01D09D9A9E9A11AE02D0EF
:101278009D8801D09D980FC0AFFF1050B06EAC8A0A
:10128800AB8E949C948EACB8ACBE02D0948C00D03B
:10129800120012EC0BF0F19E0EEC00F000D05C0492
:1012A8005D10D8A40BD0000E5D6E000E5C6E380E7B
:1012B800106EFF0E116EE7EC0AF000D05E045F10AE
:1012C800D8A40BD0000E5F6E000E5E6E570E106E27
:1012D800FF0E116EE7EC0AF000D060046110D8A48C
:1012E800DED7000E616E000E606E760E106EFF0E79
:1012F800116EE7EC0AF0D3D70CEF00F023C016F01C
:1013080025C017F029C018F02AC019F021508EEC1A
:1013180008F0235027242B6E2B04166E25C017F0D7
:1013280029C018F02AC019F021508EEC08F023C00B
:1013380016F027C017F029C018F02AC019F021505C
:101348004AEC08F023C016F027C017F029C018F09F
:101358002AC019F0215025242B6E2B044AEC08F0E2
:1013680012000001AA5100080001A825166ED880B5
:101378000001AA35176EACC018F0ADC019F0000115
:10138800A6514AEC08F0A6C021F0A7C022F0A8C0D8
:1013980023F0A9C024F0AAC025F0ABC026F0000EA7
:1013A800286E030E276E000E2A6E000E296EACC042
:1013B8002BF0ADC02CF0B3EC05F0120015C00FF007
:1013C80016C010F0000E126EFA0E116E27EC0BF01C
:1013D8000FC019F010C01AF019C017F01AC018F091
:1013E800171E181E174A182AFF0E1724196EFF0E0B
:1013F80018201A6EB80EB16E19C0D6FF1A50D76EE3
:10140800A192B18000D0A1A2FED7B1901200156EB2
:101418002A0E8BEC0BF0000E83EC0BF015506C24AD
:1014280083EC0BF0000E83EC0BF013506C2483EC70
:101438000BF02B0E8BEC0BF0000E83EC0BF0125024
:101448006F2483EC0BF0000E83EC0BF014506F2428
:1014580083EC0BF02C0E8BEC0BF01200296E29C0DC
:101468002AF02B6A0ED021C016F023C017F024C032
:1014780018F025C019F02A504AEC08F02A4A2B2AFD
:1014880000D0225029C026F0276A2626000E2722DF
:1014980026502A5C2B50800A286E2750800A28582C
:1014A800D8A0E1D7120000EE80F0260EEE6AE8061A
:1014B800FDE100EE5CF0140EEE6AE806FDE1760E42
:1014C800F66E160EF76E000EF86E00EE39F010EE9E
:1014D80023F00900F5CFEEFFE550E150FAE1000EE8
:1014E800F86E00014DEF09F00FC013F010C014F0B2
:1014F80003D0134A142A00D013C0D9FF14C0DAFF4E
:10150800DF50D8A4F6D70FC011F010C012F0111E8A
:10151800121E114A122A135011240F6E1450122051
:10152800106E00D012002A0E8BEC0BF0000E83EC2C
:101538000BF0000E83EC0BF0000E83EC0BF07F0E2B
:1015480083EC0BF02B0E8BEC0BF0000E83EC0BF006
:10155800000E83EC0BF0000E83EC0BF09F0E83EC77
:101568000BF012000FC013F010C014F005D0134A8E
:10157800142A114A122A00D011C0F6FF12C0F7FF30
:1015880013C0D9FF14C0DAFF0800F5CFDFFFDF5022
:10159800D8A4EDD71200196E800E196013D09F0ED3
:1015A800166401D00FD016C012F01928136E162831
:1015B800146E19500BEC0AF0185083EC0BF017500E
:1015C80083EC0BF01200120E126E000E136E04D094
:1015D800145093EC0BF000D010C0F6FF11C0F7FFC9
:1015E800104A112A0800F5CF14F01450D8A4F0D7E7
:1015F800120083828390800EC76E300EC66EDBECBD
:1016080006F097EC0AF063EC07F0360E8BEC0BF063
:10161800C00E83EC0BF0010E6B6E120070EC0BF039
:10162800ACEC0BF05BEC0BF0700ED36E070E936E08
:10163800F292F090F092F19CF19AF198F288F0868B
:10164800F088F28E12000F501102F3CF13F0F4CF8E
:1016580014F00F501202F350142610501102F350D8
:10166800142613C00FF014C010F000D0120001307F
:101678003000303000303000303000303000303052
:1016880000440030003000300030004400300030AA
:101698000000000E166E800E176EA00E186E22C087
:1016A80019F023C01AF0000EDCEC07F01200210E2E
:1016B800926E070E936E070E946E000E956E000ED6
:1016C800966E1200106E9E96C9CF0FF010C0C9FF1B
:1016D80000D0C7A0FED71200000E106E190E0F6EB4
:1016E8003C0E15EC09F0600ED36E12008394000EC8
:1016F800166E640E156EE2EC09F083841200116E0A
:1017080083928380115066EC0BF083821200116E75
:1017180083928390115066EC0BF0838212000F6E57
:1017280000D0ACA2FED70FC0ADFF1200F092000EA1
:10173800616E010E606E1200F090000E5F6E010E79
:101748005E6E1200F292000E5D6E010E5C6E12006B
:0A1758000E0EC16EA90EC06E120045
:10FD5C0000000000000000005F000000070007002A
:10FD6C00147F147F14242A7F2A122313086462360A
:10FD7C00495620500008070300001C224100004196
:10FD8C00221C002A1C7F1C2A08083E0808008070D0
:10FD9C003000080808080800006060002010080403
:10FDAC00023E5149453E00427F4000724949494656
:10FDBC002141494D331814127F1027454545393CD4
:10FDCC004A494931412111090736494949364649C1
:10FDDC0049291E00001400000040340000000814E3
:10FDEC00224114141414140041221408020159095C
:10FDFC00063E415D594E7C1211127C7F49494936B1
:10FE0C003E414141227F4141413E7F494949417F29
:10FE1C00090909013E414151737F0808087F0041DF
:10FE2C007F41002040413F017F081422417F404028
:10FE3C0040407F021C027F7F0408107F3E414141FD
:10FE4C003E7F090909063E4151215E7F0919294669
:10FE5C00264949493203017F01033F4040403F1F7F
:10FE6C002040201F3F4038403F63140814630304B4
:10FE7C007804036159494D43007F41414102040814
:10FE8C001020004141417F040201020440404040E7
:10FE9C0040000307080020545478407F284444381D
:10FEAC003844444428384444287F38545454180067
:10FEBC00087E090218A4A49C787F080404780044E6
:10FECC007D40002040403D007F1028440000417FD1
:10FEDC0040007C047804787C08040478384444445A
:10FEEC0038FC1824241818242418FC7C0804040852
:10FEFC00485454542404043F44243C4040207C1C6B
:10FF0C002040201C3C4030403C44281028444C905D
:10FF1C0090907C4464544C440008364100000077B7
:10FF2C00000000413608000201020402494E543020
:10FF3C0020696E746572727570742070696E2064BD
:10FF4C0065746563746564200D0A00494E54312054
:10FF5C00696E746572727570742070696E20646558
:10FF6C00746563746564200D0A00494E543220692F
:10FF7C006E746572727570742070696E206465742D
:10FF8C006563746564200D0A004543453333303195
:10FF9C004C20537072696E672032312D53310045FD
:10FFAC0057502045574C54204E5350204E534C54D0
:10FFBC00204D44004E4F5254482F534F5554480037
:10FFCC00454153542F57455354004E2F53204C54F6
:10FFDC0000452F57204C54004D6F64653A00465233
:10FFEC003A0046533A00504E5300504557002000FB
:04FFFC002A000000D7
:020000040020DA
:08000000FFFFFFFFFFFFFFFF00
:020000040030CA
:0E000000FF08191EFF8281FF0FC00FE00F40A6
:00000001FF
